:020000040800F2
:100000003C8F0020CD0E0008390F0008390F000882
:10001000390F0008390F0008390F000800000000F0
:10002000000000000000000000000000390F000880
:10003000390F000800000000390F0008390F0008D0
:10004000390F0008390F0008390F0008390F000870
:10005000390F0008390F0008390F0008390F000860
:10006000390F0008390F0008390F00087106000821
:10007000B1110008390F0008390F0008390F0008C6
:10008000390F0008390F0008390F0008390F000830
:10009000390F0008390F0008390F0008390F000820
:1000A000390F0008390F0008390F0008390F000810
:1000B000390F0008390F0008390F0008390F000800
:1000C000390F0008390F0008390F0008390F0008F0
:1000D000390F0008390F0008390F0008AD1100086A
:1000E000390F0008390F0008390F0008390F0008D0
:1000F000390F0008390F0008390F00086906000899
:10010000390F0008390F0008390F00087906000878
:10011000390F0008390F0008390F0008390F00089F
:10012000390F0008390F0008390F0008390F00088F
:10013000390F0008390F0008390F0008390F00087F
:10014000390F0008390F0008390F0008390F00086F
:10015000390F0008390F0008390F0008390F00085F
:10016000390F0008390F0008390F0008390F00084F
:10017000390F0008390F0008390F0008390F00083F
:10018000390F0008390F000882B00190019B33B18C
:10019000019B03F1FF330193019B002BF8D102B0C7
:1001A000704700BF38B540F66413C2F200031D6803
:1001B00040F20003C2F200031C685868996802F01C
:1001C0007FF958B12846214600F0CCFF40F20003E9
:1001D000C2F200035868996802F094F940F20003F3
:1001E000C2F200035868D96802F06AF958B128468B
:1001F000214600F0C5FF40F20003C2F20003586838
:10020000D96802F07FF938BDF8B506460F4640F2CE
:100210000003C2F200034FF496121A614FF4A8458E
:10022000C4F200051C4607E0236903F1FF32226196
:1002300013B900F0B7FFF8BD28464FF4003102F0C3
:10024000FBFB0028F0D14FF4A840C4F200004FF0AF
:10025000010102F0A5FB40F20003C2F200034FF4DB
:1002600080521A614FF4A845C4F200051C4607E00D
:10027000236903F1FF32226113B900F093FFF8BD47
:100280004FF00101C0F20301284602F0C7FB00282D
:10029000EED04FF4A840C4F200004FF094014FF0AC
:1002A000000202F09DFB40F20003C2F200034FF493
:1002B00080521A614FF4A845C4F200051C4607E0BD
:1002C000236903F1FF32226113B900F06BFFF8BD1F
:1002D0004FF08201C0F20701284602F09FFB002880
:1002E000EED04FF4A840C4F20000314602F090FB7B
:1002F00040F20003C2F200034FF480521A614FF43F
:10030000A845C4F200051C4607E0236903F1FF324B
:10031000226113B900F046FFF8BD4FF08001C0F232
:100320000701284602F07AFB0028EED04FF4A840DF
:10033000C4F20000394602F06BFB40F20003C2F247
:1003400000034FF496121A614FF4A845C4F2000559
:100350001C4606E0236903F1FF3222610BB900F06D
:1003600021FF4FF00401C1F20001284602F064FBB6
:100370000028EFD04FF4A840C4F200004FF0010174
:1003800002F01EFB40F20003C2F200034FF496128B
:100390001A614FF4A844C4F200041D4608E02B691A
:1003A00003F1FF322A611BB900F0FCFE044618E19C
:1003B00020464FF4003102F03FFB0028EFD14FF40C
:1003C000A840C4F200004FF0010102F0E9FA40F247
:1003D0000003C2F200034FF480521A614FF4A844A4
:1003E000C4F200041D4608E02B6903F1FF322A61C4
:1003F0001BB900F0D7FE0446F3E04FF00101C0F254
:100400000301204602F00AFB0028EDD04FF4A8407B
:10041000C4F200004FF094014FF0000202F0E0FA45
:100420004FF48052714B1A614FF4A844C4F2000497
:100430001D4608E02B6903F1FF322A611BB900F069
:10044000B1FE0446CDE04FF08201C0F20701204624
:1004500002F0E4FA0028EDD04FF4A840C4F2000006
:10046000314602F0D5FA4FF48052604B1A614FF4D6
:10047000A844C4F200041D4608E02B6903F1FF32D2
:100480002A611BB900F08EFE0446AAE04FF0040179
:10049000C1F20001204602F0CFFA0028EDD04FF45F
:1004A000A840C4F200004FF0010102F079FA4FF4C5
:1004B00080524E4B1A614FF4A844C4F200041D460A
:1004C00008E02B6903F1FF322A611BB900F06AFED4
:1004D000044686E04FF00101C0F20301204602F01D
:1004E0009DFA0028EDD04FF4A840C4F200004FF070
:1004F00094014FF0010202F073FA4FF480523B4B2B
:100500001A614FF4A844C4F200041D4608E02B69A8
:1005100003F1FF322A611BB900F044FE044660E09B
:100520004FF00201C1F20001204602F085FA0028D6
:10053000EDD04FF4A844C4F2000420464FF000016F
:1005400002F056FA238B20464FF0010102F038FAF0
:100550004FF48052254B1A614FF4A844C4F20004B2
:100560001D4608E02B6903F1FF322A611BB900F038
:1005700019FE044635E04FF04001C1F2000120466B
:1005800002F05AFA0028EDD04FF4A840C4F200005F
:1005900002F040FA4FF48052144B1A614FF4A84213
:1005A000C4F2000208E0196901F1FF341C6119B9B5
:1005B00000F0F8FD044614E0118811F4007FF2D138
:1005C00004464FF4A845C4F2000528464FF0010147
:1005D00002F00EFA4FF48061C1F20001284602F0E9
:1005E0004BFA381B18BF0120F8BD00BF00000020E7
:1005F00038B5E6280FD900F11904E4B24FF0200015
:100600002146FFF701FE05464FF021002146FFF786
:10061000FBFD401938BD00F11904E4B24FF0200091
:100620002146FFF7F1FD05464FF021002146FFF777
:10063000EBFD401938BD00BF10B54FF44064C4F263
:10064000020420464FF010014FF0000201F012FDAD
:1006500044F6FF70FFF798FD20464FF010014FF071
:10066000010201F007FD10BD08B5FFF79BFD08BDB5
:1006700008B5FFF797FD08BD08B54FF47050C4F2F8
:1006800000004FF0020102F0BBF8B0B140F20003ED
:10069000C2F200035B69022B06D100F07FFD014628
:1006A0004FF0040000F0C6FB00F078FD01464FF467
:1006B0007050C4F2000002F081F808BD10B540F29D
:1006C0000003C2F200035B6940F6A413C2F2000308
:1006D0009860196140F20004C2F200046068194693
:1006E00001F0B2FE60684FF0010101F0D9FE4FF455
:1006F0007053C4F200039B8B13F4806F07D14FF447
:100700007050C4F200004FF0010102F047F810BD34
:10071000F8B507460D4640F20004C2F2000421631A
:100720004FF6FF76B14228BF3146FFF7C7FF236B74
:10073000B34238BF1E46AD1B256040F66413C2F2BB
:10074000000307EB46061E604FF00000F8BD00BF37
:1007500010B586B04FF00100C0F220004FF001014B
:1007600000F0AAFD4FF000504FF0010100F0B6FD7F
:100770004FF0100300934FF003038DF804304FF057
:1007800000048DF807402046C4F20200694601F0DB
:100790000FFC029403940594204602A900F016FB76
:1007A00020464FF0010100F02BFB06B010BD00BF4A
:1007B0002DE9F04188B0904664290DD8C1EB0121A4
:1007C00048F21F57C5F2EB1787FB01374FEAE1717B
:1007D000C1EB6717FFB201E04FF064074FF008006C
:1007E0004FF0010100F068FD4FF0100304934FF04B
:1007F00001058DF814504FF002048DF815404FF0AC
:1008000000068DF816608DF817604FF44060C4F252
:1008100002000DEB030101F0CBFB4FF0070029466E
:1008200000F04AFD4FF4107304938DF814408DF8D6
:1008300015408DF816508DF817604FF48065C4F29E
:100840000205284604A901F0B3FB28464FF0060133
:100850004FF0040201F014FC28464FF009014FF05C
:10086000040201F00DFC4FF4A05304938DF81440E2
:100870008DF815408DF816608DF817604FF4006400
:10088000C4F20204204604A901F092FB3046C4F2EF
:1008900002004FF004014FF0060201F0F1FB204688
:1008A0004FF00A014FF0060201F0EAFB40F20003AC
:1008B000C2F200035B69022B14D008A94FF01003A9
:1008C00041F8103D3046C4F2020001F071FB4FF4D4
:1008D0000060C4F202004FF00C014FF0060201F07C
:1008E000CFFB15E04FF00100014600F0E5FC4FF0B2
:1008F000100304934FF003038DF814304FF00003FE
:100900008DF817301846C4F2020004A901F050FB1C
:100910004FF0800304934FF002068DF814608DF8B9
:1009200015604FF000048DF816408DF817404FF415
:100930000065C4F20205284604A901F039FB2846E7
:100940004FF007014FF0060201F09AFBFFF774FE2B
:100950004FF400104FF0010100F0C0FC4FF4A8402C
:10096000C4F2000001F052FFADF804404BF6FF73F3
:10097000ADF806304FF03303ADF808304FF4806324
:10098000ADF80A304FF48045ADF80C5048F2A06342
:10099000C0F2010308AC44F8203D4FF4A84065F3D1
:1009A0001F404FF0010101F0EBFF4FF4A84065F349
:1009B0001F40694601F064FF30464FF00101FFF728
:1009C00023FC04464FF004004FF0AF01FFF71CFC7E
:1009D000041940F68C03C2F200034FF0AF021A7004
:1009E0004FF005004FF08101FFF70EFC24184FF087
:1009F00006004FF00401FFF707FC24183846FFF704
:100A0000F7FD40F20003C2F200035B69B34223D159
:100A10004FF008004FF00101FFF7F6FB05464FF0DD
:100A200009004FF00101FFF7EFFB2D182C194FF0D3
:100A30000E004FF0C001FFF7E7FB24184FF0140041
:100A40004FF00001FFF7E0FB24184FF015004FF0C6
:100A50000001FFF7D9FB24184FF002004FF09E0170
:100A6000FFF7D2FB24184FF00A004FF00001FFF708
:100A7000CBFB241840F20003C2F200035B69022B97
:100A800006D04FF00E004FF00401FFF7BDFB241815
:100A90004FF027004FF00001FFF7B6FB24184FF08E
:100AA0001F004FF00F01FFF7AFFB24184FF01A00A3
:100AB0004FF00A01FFF7A8FB25184FF01B004FF07D
:100AC0000A01FFF7A1FB2D184FF400404FF0010180
:100AD00000F004FC4FF47054C4F20004204601F00E
:100AE0009FFDCDF808804FF00003ADF80230ADF85F
:100AF0000430ADF80C304FF40073ADF80030ADF8B1
:100B000006302046694601F0C5FD40F20003C2F2FE
:100B100000035B69022B13D14FF000504FF001012D
:100B200000F0DCFB4FF00004049405940794204689
:100B300004A900F04BF920464FF0010100F060F9E4
:100B4000002D40F0918040F20003C2F200035B6987
:100B5000012B56D140F20004C2F20004A0694FF00C
:100B6000010100F0A9FB60684FF0000101F098FC62
:100B7000606801F06FFB40F6A411C2F2000140F67C
:100B80008C03C2F200035B680B60E3694B608D600D
:100B90004FF04003CB604FF6FE730B614D614FF495
:100BA00080638B614FF40063CB614FF400530B62A1
:100BB0004FF480734B624FF440338B62CD620D6310
:100BC0004D638D63606801F03FFC60684FF0100179
:100BD0004FF0010201F0B4FC60684FF008014FF0E3
:100BE000010201F0ADFC236A8DF810308DF8115030
:100BF0008DF812504FF001038DF8133004A801F066
:100C00004BFF40F20003C2F200035B69012B0CD1E1
:100C10004FF47050C4F200004FF002014FF0010297
:100C200001F0CEFD4FF0000020E0FFF791FD4FF402
:100C30007050C4F200004FF071014FF0010201F05A
:100C4000CBFD4FF033038DF810304FF000048DF8DA
:100C500011408DF812404FF001038DF8133004A8B5
:100C600001F01AFF204601E04FF0010008B0BDE896
:100C7000F08100BF30B585B004460D46038A23F4E9
:100C800040534FEA03434FEA1343CA881343038296
:100C9000838923F4B05323F00C034FEA03434FEA54
:100CA00013430989AA880A4369890A4392B2134304
:100CB0008381838A23F440734FEA03434FEA13434B
:100CC000AA8913438382684600F08AFA4FF480535E
:100CD000C4F201039C4205D04FF4A053C4F20103B7
:100CE0009C4201D1039A00E0029AA3891BB2002B17
:100CF00009DA02EB820202EB82022B684FEA43031D
:100D0000B2FBF3F208E002EB820202EB82022968F6
:100D10004FEA8101B2FBF1F248F21F53C5F2EB1327
:100D2000A3FB02134FEA53134FEA03154FF064007D
:100D300003FB1023A08900B200280DDA4FEAC30399
:100D400003F1320348F21F51C5F2EB11A1FB03215D
:100D5000C1F3421129430CE04FEA031303F13203BC
:100D600048F21F51C5F2EB11A1FB0321C1F343115E
:100D7000294389B2218105B030BD00BF29B18389E3
:100D80009BB243F4005383817047838923F400535B
:100D90004FEA03434FEA1343838170474FEAC1513F
:100DA0004FEAD1518180704722B1838A9BB21943A7
:100DB00081827047838A9BB223EA01018182704756
:100DC000038819420CBF00200120704730B44FF453
:100DD000E843C4F200031C6840F6FE7202FA00F217
:100DE00024EA02024D680C6825438C682543CC68D0
:100DF00045EA040101FA00F01043186030BC704766
:100E000059B14FF4E843C4F200031A684FF00101EE
:100E100001FA00F01043186070474FF4E843C4F241
:100E200000031A684FF0010101FA00F022EA000005
:100E30001860704782B04FF0000301934FF4E8430D
:100E4000C4F200030193019B03F1080318180190F9
:100E5000019B196002B0704770B504460D461646F6
:100E60004FF0080002F0B2FA057046704FF0000330
:100E700043603CB1224600E01A465368002BFBD188
:100E80005060204670BD00BF70B5044680B1057843
:100E90008D4207D1466802F0A1FA30462946FFF795
:100EA000F3FF70BD4068FFF7EFFF6060204670BD44
:100EB0004FF0000070BD00BF08B904E01846436859
:100EC000002BFBD170474FF00000704708B5154B61
:100ED000154A9A4211D249F68872C0F6000240F2D1
:100EE0000003C2F2000340F68C00C2F2000052F888
:100EF000041B43F8041B8342F9D30C480C494FF000
:100F000000028842B8BF40F8042BFADBDFF8240067
:100F1000016841F47001016001F0CEF800F088F83A
:100F200008BD00BF8C080020000000208C080020B5
:100F30003C0F002088ED00E0FEE700BF70B582B0F6
:100F40004FF008004FF0010100F0B6F94FF001003A
:100F5000014600F0B1F94FF4704300934FF00105E2
:100F60008DF804504FF000048DF806404FF0030652
:100F70008DF805608DF807404FF44060C4F2020020
:100F8000694601F015F800958DF804408DF806408B
:100F90008DF805608DF807402046C4F202006946CE
:100FA00001F006F802B070BDF0B587B04FF4003024
:100FB0004FF0010100F092F94FF0040304934FF059
:100FC00002068DF814608DF815604FF000048DF85E
:100FD00016404FF001078DF817702546C4F2020540
:100FE000284604A900F0E4FF284631464FF00702E6
:100FF00001F046F84FF416530093ADF80440ADF8F5
:101000000640ADF80840ADF80C404FF00803ADF8CD
:101010000A304FF48844C4F2000420466946FFF7C2
:1010200029FE20463946FFF7A9FE07B0F0BD00BFF4
:1010300070B5FFF783FFFFF7B7FF01F071FD0446BE
:1010400040F63823C2F2000303F5A0614FF000021E
:101050001A805A8003F104038B42F9D140F6E01361
:10106000C2F200034FF00002C4F25C321A604FF08B
:1010700000025A604FF003021A725A724FF07E5209
:10108000DA601A614CF6CD41C3F64C615961996141
:101090004FF00001C4F2C011D9611A624CF6CD4282
:1010A000C3F6CC525A629A624FF07C51D9621A63ED
:1010B0005A639A63D9631A644FF00001C4F2201195
:1010C00059644CF6CD42C3F64C729A64D9641A65E1
:1010D0004FF004004FF055014BF68032FFF768FBEC
:1010E00040F63820C2F200004FF42071FFF710FBE9
:1010F00043F61850C0F6000000F060FB43F61C50A9
:10110000C0F6000000F05AFB40F69405C2F200055C
:1011100040F6E016C2F20006204601F0A1FD0146AD
:1011200010B1204601F086FF2868FFF7C5FE38B9E8
:1011300040F63523C2F200034FF000021A70EBE7CD
:1011400043F68833C0F60003027803EB820353F8BA
:10115000603C336040F63523C2F200034FF00102D9
:101160001A70D9E708B54FF44060C4F202004FF49A
:10117000805100F07BFF4FF4A07000F067FB08BDCA
:1011800008B54FF44060C4F202004FF4805100F003
:101190006FFF4FF0000000F059FB08BD4FF000005A
:1011A000704700BF4FF00000704700BF704700BF9E
:1011B00008B546F22800C4F202004FF40841C1F21B
:1011C000000101F0DBF948B146F22800C4F2020048
:1011D0004FF40841C1F2000101F004FA08BD00BF5C
:1011E00010B44FF46053C4F202039B6803F00C0385
:1011F000042B09D0082B0DD0002B38D14FF41053FD
:10120000C0F2F403036037E04FF49053C0F27A0366
:10121000036031E04FF46053C4F202035C685A6823
:1012200002F03F0214F4800F4FF46053C4F2020343
:101230005B68C3F3881319BF4FF49054C0F27A046B
:101240004FF41054C0F2F404B4FBF2F101FB03F1CB
:101250004FF46053C4F202035A68C2F3014202F130
:1012600001024FEA4202B1FBF2F3036004E04FF4E3
:101270001053C0F2F40303604FF46052C4F2020250
:101280009168C1F3031140F23403C2F20003595CC8
:10129000046824FA01F141609468C4F382241C5D5F
:1012A00021FA04F484609268C2F342329B5C21FA12
:1012B00003F1C16010BC704739B14FF46053C4F200
:1012C00002031A6B1043186370474FF46053C4F263
:1012D00002031A6B22EA00001863704739B14FF419
:1012E0006053C4F202031A6C1043186470474FF441
:1012F0006053C4F202031A6C22EA000018647047BB
:1013000039B14FF46053C4F202031A6A10431862F1
:1013100070474FF46053C4F202031A6A22EA0000D5
:101320001862704739B14FF46053C4F202035A6A2D
:101330001043586270474FF46053C4F202035A6A74
:1013400022EA00005862704770B506464FF48844A0
:10135000C4F200044FF0400520462946FFF730FD57
:101360000028F9D04FF48840C4F200003146FFF75E
:1013700015FD70BD01704FF00100704703460A78FB
:101380004AB14FF000001A5400F1010011F8012F8A
:10139000002AF8D170474FF0000070472DE9F8435C
:1013A00007460E469146984602F1FF32092B04D8B3
:1013B000002A10DC4FF000091DE04CF6CD43CCF6BE
:1013C000CC43A3FB08134FEAD3033146FFF7E6FFF4
:1013D00081463F180FE000F1FF354D44044620469A
:1013E0003146FFF7C7FF04F10104AC42F7D109F120
:1013F000FF33FF1899464CF6CD43CCF6CC43A3FB04
:1014000008234FEAD30303EB8303A8EB430101F165
:101410003001C9B23846FFF7ADFF4844BDE8F88354
:101420002DE9F84F07460E469A4683EAE378A8EB83
:10143000E37802F1FF39B8F1090F10D9002B4CF60F
:10144000CD43CCF6CC43A3FB08234FEAD303B8BF6C
:101450005B424A46FFF7E4FF81463F1821E0002B3C
:10146000B8BF09F1FF39B9F1000F0DDDCB4600EB34
:101470000905044620463146FFF77CFF04F10104CC
:10148000AC42F7D15F4401E04FF00009BAF1000F20
:1014900007DA38464FF02D01FFF76CFF814407F162
:1014A00001074CF6CD41CCF6CC41A1FB08314FEA07
:1014B000D10101EB8101A8EB410101F13001C9B279
:1014C0003846FFF757FF4844BDE8F88F2DE9F0474D
:1014D00082B007460E4690469A46DDF8289002F103
:1014E000FF325FEA191304D1002A09DC4FF000082B
:1014F00016E000935346FFF7E9FF80463F180FE0E0
:1015000000F1FF354544044620463146FFF732FFDF
:1015100004F10104AC42F7D108F1FF33FF189846FB
:1015200009F00F03092B05D803F130013846FFF706
:1015300021FF11E0BAF1000F07D009F00F0101F10E
:1015400037013846FFF716FF06E009F00F0101F1F9
:1015500057013846FFF70EFF08F1010002B0BDE861
:10156000F08700BF2DE9F04F83B006460F4610B15B
:101570004FF0000101704FF000054FF0300B4FF0BD
:1015800020084FF025098EE0252906D006F8011B1A
:1015900002F1010205F1010585E05178252906D106
:1015A00006F8019B02F1020205F101057BE03029FA
:1015B00019BF541C4146941C59462078A0F13002B2
:1015C000D2B2092A16D8A4464FF0000202EB8202DA
:1015D000A0F1300000EB420202F0FF0204F101042E
:1015E0001CF8010FA0F1300A5FFA8AFABAF1090F6C
:1015F000ECD901E04FF0000202EB050C67453CBF5F
:10160000C5EB0702D2B2A0F1580020285ED8DFE86F
:1016100000F02C5D5D5D5D5D5D5D5D5D5D3F115D5F
:101620005D5D5D115D5D5D5D5D5D5D5D5D375D19A0
:101630005D5D210003F1040A1B683046FFF7F0FEF0
:1016400053462CE003F1040A1B683046FFF7A6FE60
:10165000534624E003F1040A1B68009330464FF020
:101660000003FFF733FF534619E003F1040A1B6838
:10167000009330464FF00103FFF728FF53460EE07A
:1016800003F1040A19683046FFF778FE534606E076
:1016900003F1040A19783046FFF76CFE534604F153
:1016A000010236182D18117819B1BD42FFF46CAF44
:1016B00005E0AF4203D94FF00003337008E04FF06C
:1016C000000306F8013C05F1FF3501E04FF0FF355E
:1016D000284603B0BDE8F08F10B50C4613464FF016
:1016E00064012246FFF73EFF10BD00BF10B504465F
:1016F00040F24803C2F200031B689A688A4202D093
:10170000DB688B4203D1E0B2FFF71EFE01E04FF031
:10171000FF34204610BD00BF70B505460E46007868
:1017200070B14FF000043146FFF7E0FFB0F1FF3F2A
:1017300009D004F1010415F8010F0028F3D104E0E9
:101740004FF0000401E04FF0FF34204670BD00BFB1
:10175000F0B5A3B004468E4617466D4643F63056A4
:10176000C0F600060FCE0FC50FCE0FC533682B6035
:1017700009A871463A46FFF7AFFF632809DD40F23A
:101780004803C2F200031B68D9686846FFF7C4FF2C
:10179000FEE709A82146FFF7BFFF23B0F0BD00BF59
:1017A00008B503460A4640F24801C2F20001096842
:1017B00088681946FFF7CCFF08BD00BF0FB400B51D
:1017C00083B004A951F8040B0191FFF7E9FF03B0BE
:1017D0005DF804EB04B070474FEAD01343F07E533A
:1017E00010F0804F04D04FF6FF72C0F27F025340DA
:1017F000B7EE000A07EE903A37EEC07ADFED0E7AC8
:1018000027EE277A67EE077ADFED0C6A9FED0C6A08
:1018100057EE866A9FED0B6A06EEA76ADFED0A6A4D
:1018200056EE276A06EEA70A20EE070A0028B8BF80
:10183000B1EE400A704700BFDB0FC93F010D5039C0
:101840001DEF38368988083CABAA2A3E2DE9F047BF
:101850002DED068B81464FF44060C4F202004FF438
:10186000005100F003FC40F63423C2F200031B7861
:1018700073B340F63423C2F200034FF000021A7033
:1018800040F69803C2F200034FF001021A705A703A
:10189000B7EE007A93ED026A37EE466A40F6E01240
:1018A000C2F20002D2ED096ADFEDE17A66EEA76AC4
:1018B000C6EE266AC3ED016AD3ED046A37EE667A96
:1018C000D2ED0D6A66EEA77AC7EE277AC3ED037AEA
:1018D00040F63523C2F200031B78002B3BD140F6C3
:1018E0009803C2F200031B78042B16D040F698032D
:1018F000C2F200034FF004021A7040F6E012C2F286
:10190000000292ED0C7ADFEDCA7A67EE277A93ED4A
:10191000027AC7EE277AC3ED057A40F69803C2F241
:1019200000035B78042B16D040F69803C2F2000344
:101930004FF004025A7040F6E012C2F2000292ED3B
:10194000107ADFEDBB7A67EE277A93ED047AC7EE63
:10195000277AC3ED067A40F69802C2F2000240F6FA
:10196000E013C2F20003B7EE007A93ED0B6A37EE94
:10197000466AD3ED0A6ADFEDAE7A66EEA76AC6EE76
:10198000266AC2ED076AD3ED0F6A37EE667AD3EDA9
:101990000E6A66EEA77AC7EE277AC2ED087A4FEA9A
:1019A000490240F63823C2F20003D618174603F561
:1019B000207303EB020840F69804C2F2000440F6DC
:1019C000E015C2F20005DFF874A2C9EBC9794FEA4D
:1019D0004909D5ED117A9FED9F7A67EE877ADFEDA1
:1019E000946AC7EEA67AD4ED096A77EEA67AC4EDBA
:1019F000097AF4EEC77AF1EE10FAC4BF77EEC77A2F
:101A0000C4ED097A43F65453C0F60003D4ED097AC5
:101A1000FCEEE77A17EE902A92B203EB8203D5ED43
:101A2000129AD3ED007A69EEA79AD5ED137A9FED5D
:101A3000897A67EE877ADFED7E6AC7EEA67AD4ED03
:101A40000A6A77EEA67AC4ED0A7AF4EEC77AF1EE66
:101A500010FAC4BF77EEC77AC4ED0A7A43F654533E
:101A6000C0F60003D4ED0A7AFCEEE77A17EE902A6E
:101A700092B203EB820395ED147AD3ED007AF7EE80
:101A8000006A47EE276A95ED007AD5ED017A46EEB9
:101A9000877A95ED03AA27EE8AAADFED6E6A2AEE11
:101AA00026AA9FED637A8AEE07AAD5ED04AA67EE0F
:101AB000AAAA6AEEA6AACAEE87AA94ED0B7AFDEE50
:101AC000C75A15EE902A92B206EE102AF8EEC66AB0
:101AD00077EE666A02F101039BB205EE903AB8EE2A
:101AE000E56A36EE477AB3F5806F08BF0023297A9E
:101AF00003293FD8DFE801F00213212F44F64C619F
:101B0000C0F6000101EB820212ED3E6A01EB830395
:101B100053ED3E5A66EEA56A47EE066A3AE045493D
:101B200001EB820292ED006A01EB8303D3ED005AD0
:101B300066EEA56A47EE066A2CE03F4901EB820299
:101B400092ED006A01EB8303D3ED005A66EEA56ABD
:101B500047EE066A1EE00AF1180101EB820292EDDF
:101B6000006A01EB8303D3ED005A66EEA56A47EEE7
:101B7000066A0FE043F65451C0F6000101EB820201
:101B800092ED006A01EB8303D3ED005A66EEA56A7D
:101B900047EE066A94ED0C7AFDEEC75A15EE902AD0
:101BA00092B206EE102AB8EEC68A37EE488A02F1E3
:101BB00001039BB205EE903AB8EEE56A36EE477A3D
:101BC000B3F5806F08BF0023697A032953D8DFE893
:101BD00001F00213214344F64C61C0F6000101EB11
:101BE000820212ED3E6A01EB830353ED3E5A28EE6A
:101BF000258A07EE068A4EE00E4901EB820292ED3D
:101C0000006A01EB8303D3ED005A28EE258A07EE24
:101C1000068A40E0084901EB820292ED006A01EB7E
:101C20008303D3ED005A28EE258A07EE068A32E0B8
:101C300000803B47545D0008546D00083C7D00085F
:101C400000803B470000804E0000804F00FEFF46B2
:101C500000FEFFC6000080440AF1180101EB820279
:101C600092ED006A01EB8303D3ED005A28EE258A3A
:101C700007EE068A0FE043F65451C0F6000101EB6F
:101C8000820292ED006A01EB8303D3ED005A28EE45
:101C9000258A07EE068A95ED057A95ED066A28EE07
:101CA000068A06EE878A84ED0D8AD4ED046AD5EDA6
:101CB000078AB3EE047A46EE878A68EEA78A1FED9C
:101CC000207AC8EE878A1FED207A68EE878AFCEEBC
:101CD000E88AF8EE688AFCEEE85A15EE900AFFF7FB
:101CE0007BFDB0EE409A5FED297A77EEE88AF5EE5B
:101CF000C08AF1EE10FA44BF5FED2D7A78EEA78A24
:101D0000FCEEE88A18EE900AFFF766FD95ED087A7A
:101D100089EE079AB7EE007A37EE405A79EE077AE5
:101D2000F6EE005A65EE255AC5EEA75A94ED0E6AF6
:101D3000D4ED0F6A85EE275A25EE065A08EE255A8D
:101D4000D4ED104A05EEA45A30EE000A80EE270AC0
:101D500000EE265A37EE499AB1EE499AC9EE277A33
:101D6000D4ED115A07EEA55A84ED125A84ED106A8B
:101D700084ED0E8AC4ED116A84ED0F5A2378042B8A
:101D800058D8DFE803F0030724393C004FF0000384
:101D9000A3604FE094ED027AD4ED017A77EE277AD2
:101DA000C4ED027AB7EE007AF4EEC77AF1EE10FADB
:101DB00040DD84ED027A4FF0020323704FF440605F
:101DC000C4F202004FF4004100F050F932E094ED0B
:101DD000027AD4ED077A77EE677AC4ED027A95ED50
:101DE0000B7AF4EEC77AF1EE10FA23D584ED027A7D
:101DF0004FF0030323701DE0EB6AA3601AE094ED3B
:101E0000027AD4ED057A77EE677AC4ED027AF5EEC0
:101E1000C07AF1EE10FA0DD54FF00003A3604FF039
:101E2000000323704FF44060C4F202004FF40041FD
:101E300000F01EF96378042B58D8DFE803F003079D
:101E400024393C004FF0000323614FE094ED047A05
:101E5000D4ED037A77EE277AC4ED047AB7EE007AF0
:101E6000F4EEC77AF1EE10FA40DD84ED047A4FF01B
:101E7000020363704FF44060C4F202004FF400416B
:101E800000F0F4F832E094ED047AD4ED087A77EEBD
:101E9000677AC4ED047A95ED0F7AF4EEC77AF1EE25
:101EA00010FA23D584ED047A4FF0030363701DE02C
:101EB000EB6B23611AE094ED047AD4ED067A77EEA9
:101EC000677AC4ED047AF5EEC07AF1EE10FA0DD51A
:101ED0004FF0000323614FF0000363704FF4406044
:101EE000C4F202004FF4004100F0C2F8F7EE007AAD
:101EF00079EEA79AD4ED027A69EEA79A5FEDAD7AF2
:101F000069EEA79A94ED127A69EE879AC4ED0D9A5C
:101F1000F4EEE79AF1EE10FA02DDC4ED0D7A09E075
:101F20005FEDB57AF4EEE79AF1EE10FA44BF17EEE2
:101F3000903A6363D4ED0D7AFDEEE77A17EE903AAE
:101F4000338006EB0902D2195380D4ED0B7A3AEEB6
:101F500027AA84ED0BAA5FEDC17AB4EEE7AAF1EEF1
:101F600010FAC4BF3AEE67AA84ED0BAAD4ED0C7A3E
:101F70007AEEA7AAC4ED0CAA5FEDCA7AF4EEE7AA3E
:101F8000F1EE10FAC4BF7AEEE7AAC4ED0CAA06F18E
:101F9000040646457FF41DAD4FF44060C4F20200D4
:101FA0004FF4005100F064F8BDEC068BBDE8F087FB
:101FB0002DE9F0074FF0000213464FF001074FF0F4
:101FC000030C1E4607FA03F40D682540A54243D1D1
:101FD000D0F8009090460CFA02F46FEA040404EA88
:101FE0000909C0F80090D0F800A091F8049009FA0F
:101FF00002F949EA0A09C0F8009091F8049009F141
:10200000FF395FFA89F9B9F1010F1CD8D0F80890AF
:1020100004EA0909C0F80890D0F808A091F80590E2
:1020200009FA02F949EA0A09C0F80890D0F80490C0
:1020300029EA05054560456891F8069009FA03F616
:10204000B6B22E434660C5682C40C460C568CC79E2
:1020500004FA08F42C43C46003F1010302F1020204
:10206000102BAED1BDE8F007704700BF0183704769
:10207000418370470AB1018370474183704700BFB5
:1020800030B401F007034FEA83034FEAD10101F1B5
:10209000080150F821504FF00F0404FA03F425EA28
:1020A000040440F8214050F8214002FA03F323438E
:1020B00040F8213030BC704782B04FF46D43CEF20F
:1020C0000003D3F8882042F47002C3F888204FF44C
:1020D0006053C4F202031A6842F001021A604FF022
:1020E00000029A60196821F0847121F4803119602E
:1020F00043F21001C2F200415960196821F48021B5
:102100001960DA60009201921A6842F480321A6013
:102110004FF46052C4F20202136803F400330193D7
:10212000009B03F101030093019B1BB9009BB3F5D6
:10213000A06FF1D14FF46053C4F202031B6813F493
:10214000003F14BF012300230193019B012B46D1C3
:102150004FF46053C4F202031A6C42F080521A64C6
:102160004FF4E042C4F20002116841F48041116072
:102170009A689A609A6842F460429A609A6842F457
:10218000E0529A6045F20842C0F240725A601A6802
:1021900042F080721A604FF46052C4F20202136877
:1021A00013F0007FFBD04FF47053C4F2020340F2EF
:1021B00005621A604FF46053C4F202039A6822F079
:1021C00003029A609A6842F002029A604FF46052E9
:1021D000C4F20202936803F00C03082BFAD14FF407
:1021E0006053C4F202039A6822F400029A604FF42A
:1021F0008142C3F20002C3F884201A6842F0806270
:102200001A604FF46052C4F20202136813F0006FB8
:10221000FBD04FF46D43CEF200034FF000629A60A2
:1022200002B0704740F6E403C2F200031B6843B9F2
:1022300040F6E403C2F2000348F64072C2F2000224
:102240001A6040F6E403C2F200031A68101818601E
:1022500010467047036823F0010303604FF000034A
:10226000036043608360C36003614FF021034361F7
:1022700046F21003C4F20203984207D14FF4C04360
:10228000C4F202034FF03D029A60704746F2280301
:10229000C4F20203984207D14FF4C043C4F20203D0
:1022A0004FF474629A60704746F24003C4F202032E
:1022B000984207D14FF4C043C4F202034FF47412A2
:1022C0009A60704746F25803C4F20203984207D15D
:1022D0004FF4C043C4F202034FF074629A60704737
:1022E00046F27003C4F20203984209D14FF4C0438E
:1022F000C4F202034FF03D02C2F20002DA607047FE
:1023000046F28803C4F20203984209D14FF4C04355
:10231000C4F202034FF47462C2F20002DA60704742
:1023200046F2A003C4F20203984209D14FF4C0431D
:10233000C4F202034FF00002C2F23D02DA607047BD
:1023400046F2B803C4F20203984207D14FF4C043E7
:10235000C4F202034FF03D52DA60704746F2104378
:10236000C4F20203984207D14FF4C843C4F20203F7
:102370004FF03D029A60704746F22843C4F20203D0
:10238000984207D14FF4C843C4F202034FF4746279
:102390009A60704746F24043C4F20203984207D164
:1023A0004FF4C843C4F202034FF474129A607047AA
:1023B00046F25843C4F20203984207D14FF4C8438F
:1023C000C4F202034FF074629A60704746F27043A1
:1023D000C4F20203984209D14FF4C843C4F2020385
:1023E0004FF03D02C2F20002DA60704746F28843C5
:1023F000C4F20203984209D14FF4C843C4F2020365
:102400004FF47462C2F20002DA60704746F2A043F1
:10241000C4F20203984209D14FF4C843C4F2020344
:102420004FF00002C2F23D02DA60704746F2B84354
:10243000C4F20203984206D14FF4C843C4F2020327
:102440004FF03D52DA60704710B4026848F23F0323
:10245000CFF21C031340CC680A6822434C69224324
:102460008C692243CC6922430C6A22434C6A224382
:102470008C6A22434C6B22438C6B224313430360D0
:10248000426922F007020C6BCB6A2343134343617A
:102490000B6943604B6883608B68C36010BC7047F6
:1024A00021B1036843F0010303607047036823F020
:1024B00001030360704700BF406880B2704700BFEF
:1024C00010B446F20F44C4F202044FF4C842C4F2FE
:1024D00002024FF4C043C4F20203A0428CBF104674
:1024E000184611F0005F14BF4268026840F67D7321
:1024F000C0F67D730B4013420CBF0020012010BCBE
:10250000704700BF10B446F20F44C4F202044FF407
:10251000C842C4F202024FF4C043C4F20203A04214
:102520008CBF1046184611F0005F40F67D73C0F670
:102530007D7301EA030314BFC360836010BC70475E
:1025400011F0800F09D022B1436943F08003436149
:1025500003E0436923F08003436180290CD02AB152
:10256000036801F01E01194301607047036801F020
:102570001E0123EA01010160704700BF10B446F25A
:102580000F44C4F202044FF4C842C4F202024FF4F2
:10259000C043C4F20203A04298BF1A4640F63C73FF
:1025A000C0F63C730B402BB1006800F01E0000EA3F
:1025B000D12002E0406900F0800011F0005F14BFFC
:1025C0005268126840F67D73C0F67D730B4013426B
:1025D00003D0003018BF012001E04FF0000010BC14
:1025E000704700BF10B446F20F44C4F202044FF427
:1025F000C842C4F202024FF4C043C4F20203A04234
:102600008CBF1046184611F0005F40F67D73C0F68F
:102610007D7301EA030314BFC360836010BC70477D
:1026200008B54FF44053C4F2010398420CD14FF463
:1026300080504FF00101FEF775FE4FF480504FF0CF
:102640000001FEF76FFE08BD4FF46053C4F20003B3
:1026500098420CD14FF480404FF00101FEF750FE3C
:102660004FF480404FF00001FEF74AFE08BD4FF4E2
:102670007053C4F2000398420BD14FF400404FF066
:102680000101FEF73DFE4FF400404FF00001FEF760
:1026900037FE08BDF0B4838B23F47A6323F01F0365
:1026A0004FEA03434FEA134383834FF0020303844B
:1026B000848BA4B28B68022B54D08E88002E14BF5A
:1026C000022601264FF46053C4F202039B6813F400
:1026D000000F07D04FF46053C4F202039A6822F44B
:1026E00000029A604FF46053C4F20203D3F884509E
:1026F000D3F884205F68C5F3881507F03F074FF4CF
:102700009053C0F27A03B3FBF7F303FB05F3C2F374
:102710000272B3FBF2F3CA88B2F5007F0EBF1B0A48
:102720007601B3FBF6F303EB83034FEA43038A68B6
:10273000B3FBF2F303F105039BB24CF6CD42CCF6AA
:10274000CC42A2FB03534FEAD30303F001024FEA4A
:102750005303A3F10205ADB2FD2D08D84FEA0222C2
:1027600092B208E04FF000024FF0020303E04FF096
:1027700000024FF002031343CA88134303840A88FC
:1027800044EA020343F400634A8813438A881343EC
:102790008A8913439BB28383F0BC704729B1838B32
:1027A0009BB243F4806383837047838B23F48063FD
:1027B0004FEA03434FEA1343838370478181704795
:1027C00022B183889BB219438180704783889BB272
:1027D00023EA0101818070474FEA11114FF0010394
:1027E00003FA01F189B222B183889BB21943818037
:1027F000704783889BB223EA01018180704700BF44
:10280000038919420CBF00200120704708B54FF41E
:10281000A843C4F2000398420CD14FF400104FF0CB
:102820000101FEF76DFD4FF400104FF00001FEF7BF
:1028300067FD08BD4FF4B043C4F2000398420CD1C9
:102840004FF480004FF00101FEF75AFD4FF4800075
:102850004FF00001FEF754FD08BD4FF4B843C4F239
:10286000000398420BD14FF400004FF00101FEF736
:1028700047FD4FF400004FF00001FEF741FD08BD99
:1028800070B584B004460D46868826F03F064FEAB0
:1028900006464FEA16466846FEF7A2FC02994DF638
:1028A0008362C4F21B32A2FB01024FEA924216433A
:1028B000A680238823F001034FEA03434FEA134322
:1028C00023802B6848F2A060C0F2010083420BD83D
:1028D0004FEA4303B1FBF3F189B202F10102228412
:1028E000032998BF04212EE0EE884BF6FF70864244
:1028F00005D103EB4303B1FBF3F189B208E003EB2D
:10290000830303EB8303B1FBF3F189B241F480410C
:102910004FEA01534FEA13530BB941F001016FEA3B
:1029200041416FEA514189B24FF4967303FB02F2C1
:1029300044F6D353C1F2620383FB02034FEAA313AD
:1029400003F101032384A18323889BB243F0010395
:102950002380238823F4806323F00A034FEA034390
:102960004FEA13436989AA880A4313439BB2238021
:102970002A89AB8913439BB2238104B070BD00BF89
:1029800029B103889BB243F0010303807047038899
:1029900023F001034FEA03434FEA134303807047D8
:1029A00029B103889BB243F4807303807047038886
:1029B00023F480734FEA03434FEA134303807047C5
:1029C00029B103889BB243F40073038070470388E6
:1029D00023F400734FEA03434FEA13430380704725
:1029E00012B141F0010101E001F0FE0101827047E6
:1029F00029B103889BB243F4806303807047038846
:102A000023F480634FEA03434FEA13430380704784
:102A100001827047008AC0B2704700BF838A9BB2B0
:102A2000008B43EA0040084020F07F40814214BF01
:102A300000200120704700BF82B04FF000030193D7
:102A4000009300904FEA1173019321F07F41019BA5
:102A500023B1009B03F11403009305E04FEA1141F9
:102A6000009B03F118030093009B1B6819420CBFE5
:102A70000020012002B070476FEA010189B2818213
:102A8000704700BF40F0BE6040F420204FF46D431B
:102A9000CEF20003D860704710B4C3786BB34FF424
:102AA0006D43CEF20003DB686FEA0303C3F3022336
:102AB0004178C3F10402D2B201FA02F2D2B24FF06D
:102AC0000F0141FA03F18478214011434FEA0111CB
:102AD000C9B202784FF46143CEF200039A1882F82B
:102AE000001302784FEA521102F01F024FF001006A
:102AF00000FA02F243F8212010E003784FEA531263
:102B000003F01F034FF0010101FA03F14FF4614399
:102B1000CEF2000302F1200243F8221010BC7047ED
:102B20002DE9F04397B04FF480204FF00101FEF7FC
:102B3000D5FB4FF400104FF00101FEF7BDFB4FF441
:102B4000407314934FF002038DF854308DF85530D4
:102B50004FF000048DF856404FF001078DF8577084
:102B60004FF44065C4F20205284614A9FFF720FA85
:102B700028464FF008014FF00702FFF781FA284678
:102B80004FF009014FF00702FFF77AFA47F61223D8
:102B90001093ADF84440ADF84640ADF84840ADF86C
:102BA0004C404FF00403ADF84A304FF49045C4F266
:102BB0000005284610A9FEF75DF84FF00C038DF8CC
:102BC0003C308DF83D408DF83E408DF83F700FA8A9
:102BD000FFF762FF4FF4A060FFF754FF2846394625
:102BE000FEF7CCF846F22806C4F202063046FFF79C
:102BF00031FB4FF000630093039440F6E808C2F203
:102C00000008CDF808804FF04009CDF8109044F648
:102C10000403C4F20003019305944FF48063069308
:102C2000079408944FF4807309934FF400330A9388
:102C30000B944FF003030C930D940E9430466946A9
:102C4000FFF702FC284649463A46FEF7ADF8304603
:102C50003946FFF725FC404617B0BDE8F08300BFBA
:102C600008B546F22800C4F20200FFF725FC40F246
:102C70007843C2F200031B88984209D028BF403332
:102C80001B1A9BB240F27842C2F20002108001E0AF
:102C90004FF00003D8B208BDA0F12000392800F29F
:102CA000C181DFE810F03A005100BF01BF01BF0150
:102CB000BF01BF01BF01BF01BF01BF01BF01BF0114
:102CC000BF01BF01BF01E400F7000A0119012C0197
:102CD0003F0152016101A200B100C000CD007401AA
:102CE00087019A01AD01BF01BF01BF01BF01BF0153
:102CF000BF01BF01BF01BF01BF01BF01BF01BF01D4
:102D0000BF01BF01BF01BF01BF01BF01BF01BF01C3
:102D1000BF01BF01BF01680085007F2940F08281AB
:102D200040F6E013C2F200031A7A02F10102D2B2B5
:102D30001A72052A40F0768140F6E013C2F20003D1
:102D40004FF000021A7270477F2940F06B8140F605
:102D5000E013C2F200035A7A02F10102D2B25A72AF
:102D6000052A40F05F8140F6E013C2F200034FF005
:102D700000025A7270477F2940F0548140F6E013F8
:102D8000C2F20003D3ED037A77EEA77AC3ED037A9C
:102D9000B1EE007AF4EEC77AF1EE10FAC0F2428199
:102DA00040F6E013C2F200034FF07C52DA60704745
:102DB0007F2940F0378140F6E013C2F20003D3EDE3
:102DC000047A77EEA77AC3ED047AB1EE007AF4EED6
:102DD000C77AF1EE10FAC0F2258140F6E013C2F294
:102DE00000034FF07C521A61704740F6E013C2F2C4
:102DF000000307EE901AB8EE677ADFED8B7AC7EE24
:102E0000277AC3ED057A704740F6E013C2F200035B
:102E100007EE901AB8EE677ADFED837AC7EE277A6D
:102E2000C3ED067A704740F6E013C2F2000349F69C
:102E30005452C0F6000202EB81021268DA61704758
:102E400040F6E013C2F2000307EE901AB8EE677A7C
:102E5000F1EE047A27EE277ADFED737A87EE277A90
:102E6000DFED727A77EE277AC3ED087A704740F685
:102E7000E013C2F2000307EE901AB8EE677ADFEDB6
:102E80006A7A87EE277ADFED6A7A77EE277AC3EDE2
:102E9000097A704740F6E013C2F2000307EE901A79
:102EA000B8EE677ADFED607A87EE277ADFED607A39
:102EB00077EE277AC3ED0A7A704740F6E013C2F244
:102EC000000307EE901AB8EE677ADFED577AC7EE87
:102ED000277AC3ED0B7A704740F6E013C2F2000385
:102EE00007EE901AB8EE677ADFED4F7A87EE277A11
:102EF000DFED4F7A77EE277AC3ED0C7A704740F614
:102F0000E013C2F2000307EE901AB8EE677ADFED25
:102F1000467A87EE277ADFED467A77EE277AC3ED99
:102F20000D7A704740F6E013C2F2000307EE901AE4
:102F3000B8EE677ADFED3C7A87EE277ADFED3C7AF0
:102F400077EE277AC3ED0E7A704740F6E013C2F2AF
:102F5000000307EE901AB8EE677ADFED337AC7EE1A
:102F6000277AC3ED0F7A704740F6E013C2F20003F0
:102F700007EE901AB8EE677ADFED2B7A87EE277AA4
:102F8000DFED2B7A77EE277AC3ED107A704740F6A3
:102F9000E013C2F2000307EE901AB8EE677AF2EE81
:102FA000047A27EE277ADFED207AC7EE277AC3ED81
:102FB000117A704740F6E013C2F2000307EE901A50
:102FC000B8EE677ADFED197A27EE277ADFED167A09
:102FD000C7EE277AC3ED127A704740F6E013C2F2CB
:102FE000000307EE901AB8EE677AF2EE047A27EE45
:102FF000277ADFED0D7AC7EE277AC3ED137A704793
:1030000040F6E013C2F2000307EE901AB8EE677ABA
:10301000DFED067A27EE277ADFED037AC7EE277A0F
:10302000C3ED147A704700BF0000FE42CDCCCC3D0A
:103030006F12833AF8B52DED028B06460D4640F629
:10304000E804C2F200049FEDC78AB8E194F840306A
:10305000F25C94F841102929FDD801A050F821F024
:103060000931000857300008573000085730000871
:103070005730000857300008573000085730000814
:103080005730000857300008A7310008D731000832
:1030900057300008573000085730000857300008F4
:1030A00057300008573000085730000857300008E4
:1030B00055320008853200085730000857300008A4
:1030C00057300008573000085730000857300008C4
:1030D0005730000857300008C9320008F93200089C
:1030E00057300008573000085730000857300008A4
:1030F0005730000857300008573000085730000894
:10310000353300086D33000802F0F002902A08D031
:1031100002DC802A3DD112E0B02A1ED0E02A38D14C
:1031200029E04FF00A0284F841203F2B0CBF002316
:10313000013384F8403005F1FF35EDB23FE14FF047
:10314000140284F841203F2B0CBF0023013384F884
:10315000403005F1FF35EDB231E14FF01E0284F849
:1031600041203F2B0CBF0023013384F8403005F190
:10317000FF35EDB223E14FF0280284F841203F2BC8
:103180000CBF0023013384F8403005F1FF35EDB268
:1031900015E13F2B0CBF0023013384F8403005F1CB
:1031A000FF35EDB20BE112F0800F04D04FF00003B9
:1031B00084F8413003E184F842203F2B0CBF002308
:1031C000013384F8403005F1FF35EDB24FF00B03C9
:1031D00084F84130F3E084F843203F2B0CBF0023F8
:1031E000013384F8403005F1FF35EDB24FF00A03AA
:1031F00084F84130DAB149F65470C0F6000094F812
:103200004210FEF7DBFA40F69407C2F20007386876
:1032100094F8421094F84320FDF71EFE386040F603
:103220003423C2F200034FF001021A70C7E049F6DE
:103230006870C0F6000094F84210FEF7BFFA40F63E
:103240009407C2F20007386894F84210FDF71CFE9C
:103250003860B4E012F0800F04D04FF0000384F81F
:103260004130ACE084F842203F2B0CBF00230133F7
:1032700084F8403005F1FF35EDB24FF0150384F8C6
:1032800041309CE084F843203F2B0CBF00230133E6
:1032900084F8403005F1FF35EDB24FF0140384F8A7
:1032A000413049F66870C0F6000094F84210FEF70D
:1032B00085FA40F69407C2F20007386894F8421085
:1032C000FDF7E2FD38607AE012F0800F04D04FF095
:1032D000000384F8413072E084F844203F2B0CBF97
:1032E0000023013384F8403005F1FF35EDB24FF093
:1032F0001F0384F8413062E084F845203F2B0CBF67
:103300000023013384F8403005F1FF35EDB24FF072
:103310001E0384F8413049F67C70C0F6000094F832
:103320004410FEF74BFA94F8440094F84510FFF768
:10333000B3FC44E012F0800F04D04FF0000384F897
:1033400041303CE084F846203F2B0CBF0023013382
:1033500084F8403005F1FF35EDB24FF0290384F8D1
:1033600041302CE0000000460000404784F8472030
:103370003F2B0CBF0023013384F8403005F1FF35AB
:10338000EDB240F6E013C2F20003D3ED007A77EE1F
:10339000A77A94F8461041EAC21206EE902AB8EED7
:1033A000667A37EE487A67EE877A1FED117AC7EEB4
:1033B000877AC3ED017A4FF0280384F84130002D5D
:1033C0007FF444AEBDEC028BF8BD00BF40F2480371
:1033D000C2F200030146186800F008B840F2480342
:1033E000C2F200030146186800F006BB2DE9F04F59
:1033F00001F10B04162C83B0054627D934F00704DD
:1034000027D4A14225D8284600F090FAB4F5FC7FD5
:1034100023D2B14E4FEAD40E06EBCE03DF689F42B3
:1034200000F0D5817B68FA68B96823F00303FB18C4
:10343000CA605868916040F001025A60284600F066
:1034400077FA0837384603B0BDE8F08F1024A14260
:10345000D9D90C232B600027F4E75FEA542E00F043
:103460008880BEF1040F00F250814FEA941E0EF1E5
:10347000380E4FEACE01984E7118CF68B94205D187
:103480000CE0002B7ADAFF68B94207D07A6822F0A4
:103490000302131B0F2BF4DD0EF1FF3E0EF1010EA4
:1034A0008D4A376902F1080C674500F06E817B6830
:1034B00023F00303191B0F2900F354810029C2F8DC
:1034C00014C0C2F810C067DAB3F5007F80F02B811A
:1034D000DB0802EBC301D2F804808868F9609B1016
:1034E0004FF0010909FA03F343EA0803B860536097
:1034F0008F60C76001204FEAAE0200FA02F09842E6
:1035000054D8034206D12EF0030E400003420EF1C0
:10351000040EFAD006EBCE094F46F046FB689F42F8
:1035200007D134E1002A80F25B81DB689F4200F022
:103530002E81596821F003010A1B0F2AF2DD1F4674
:103540001919D86857F808EF8A5044F0010442F07E
:103550000102CEF80C00C0F808E05C6071613161D6
:10356000C1F80CC0C1F808C04A60284600F0E0F974
:1035700068E74FEAD40E4FEACE017CE7BA18FB6841
:103580005068B96840F001005060CB6099602846EF
:1035900000F0CEF9083755E7FB1828465A6842F084
:1035A00001025A6000F0C4F908374BE7B7687B683E
:1035B00023F003094C4504D8C4EB09020F2A00F399
:1035C0009780DFF824B1454BDBF800201B680132FF
:1035D000234400F0518103F580530F3323F47E63BD
:1035E00023F01F0319462846019300F0A3F9B0F118
:1035F000FF3F8046019B00F04A8107EB09018142B1
:1036000000F20981DFF8E4A0DAF8002041451A440D
:10361000CAF8002000F04081DBF80000013000F023
:103620004B81C1EB08015218CAF8002018F00702BC
:1036300000F00481C2F10801C2F58052884402F111
:10364000080B43441B051B0DC3EB0B0B28465946C7
:1036500000F070F9431C00F03B81C8EB00035B44B1
:1036600043F00103DAF80020C6F808805A44B74254
:10367000CAF80020C8F8043015D0B9F10F0F40F295
:10368000EA807868A9F10C0323F00703F91800F029
:10369000010E43EA0E0E05200F2BC7F804E0486028
:1036A000886000F20D810E4BB76819688A4288BFA6
:1036B0001A600C4B19688A4288BF1A607A6822F037
:1036C0000302944202D8121B0F2A11DC284600F094
:1036D0002FF90027B6E600BF7C040020380900203F
:1036E0003409002030090020880800203C0900200F
:1036F0003B1942F0010244F001047C6028465A6004
:10370000B360083700F014F99CE6BEF1140F76D9C7
:10371000BEF1540F00F288804FEA143E0EF16E0E97
:103720004FEACE01A7E65A0A042A6DD9142A00F2FC
:10373000A58002F15B084FEAC8003018784982681A
:10374000824203D17DE09268904204D0516821F01A
:1037500003018B42F7D3D1687368F960BA60D76010
:103760008F60C7E63B1941F0010044F001047C6022
:10377000536113615860C3F80CC0C3F808C05950B6
:10378000284600F0D5F808375CE65368B2E608F141
:103790000108083718F0030F7FF4C0AE4B461EF047
:1037A000030FA3F108020EF1FF3E00F0AA801B6890
:1037B0009342F4D07368400098423FF6F7AE002879
:1037C0003FF4F4AE184200F0A180C646A2E607F12D
:1037D00008037F69BB427FF425AE0EF1020E5FE65F
:1037E00059181F464868DB6857F8082F40F0010059
:1037F0004860D3609A60284600F09AF822E60EF1FD
:103800005B0E4FEACE0136E64FEA931808F138080E
:103810004FEAC80091E7B7423FF4F4AE404B9F68CF
:103820007A6822F003024CE7BEF5AA7F19D84FEA66
:10383000D43E0EF1770E4FEACE011CE64FF4805BCA
:10384000FFE64B684FEAA808012000FA08F003439E
:103850004B60114681E70123C8F804304746002237
:103860002FE740F254539E4521D84FEA944E0EF173
:103870007C0E4FEACE01FEE51033B3E6542A2BD876
:103880004FEA133808F16E084FEAC80055E7B768E9
:103890007A6822F0030214E70805000D00287FF47F
:1038A000BBAEB1684B4443F001034B60FBE64FF401
:1038B0007C714FF07E0EDEE51A4AC2F80080B5E654
:1038C00007F10801284600F097F8174B1A68EAE656
:1038D00001234FF0000BC5E6B2F5AA7F06D84FEAE8
:1038E000D33808F177084FEAC80026E740F2545170
:1038F0008A420FD84FEA934808F17C084FEAC80083
:103900001BE7736823EA0003736054E7400008F183
:10391000040857E74FF47C704FF07E080DE700BFB6
:103920007C040020880800203C090020704700BF6C
:10393000704700BF38B5074C002305460846236092
:10394000FEF770FC431C00D038BD2368002BFBD071
:103950002B6038BD380F0020F8B5244D04460F46C3
:10396000FFF7E4FFAB685E6826F0030606F57E63AA
:103970000F33DF1B3F0B013F3F03B7F5805F20464E
:103980001CDB0021FFF7D6FFAB689B19984219D0CA
:103990002046FFF7CDFF0020F8BD00212046FFF7AD
:1039A000C9FFAB68C21A0F2A07DD11490968401A1E
:1039B000104942F0010208605A602046FFF7B8FF44
:1039C0000020F8BD79422046FFF7B4FF0130E4D073
:1039D000084BAA681968F61B46F00106CF1B204663
:1039E00056601F60FFF7A4FF0120F8BD7C04002093
:1039F000880800203C0900202DE9F0410D460446CE
:103A0000002958D0FFF792FF55F8040C5A4EA5F143
:103A1000080120F00103CA18D6F808C05768944579
:103A200027F0030765D010F00100576032D0002066
:103A3000D5196D6815F0010F06D1DB1995680028BE
:103A40004BD0D268EA60956043F001024A60CB50E7
:103A5000D8B9B3F5007F30D35A0A042A64D89D0937
:103A60003835E80086194448B268B24203D161E0B3
:103A70009268964204D0506820F003008342F7D346
:103A8000D368CB608A60D16099602046BDE8F04180
:103A9000FFF74EBF55F808CCCCEB010106F1080842
:103AA0008D68454563443DD0D1F80CC0C5F80CC0C5
:103AB000CCF80850BCE7BDE8F081DB0806EBC30298
:103AC00075689068CA609B10012707FA03F32B43BF
:103AD000886073609160C160D7E7284FBD42B0D164
:103AE00043F0010271613161CD608D604A60CB505D
:103AF000CBE7C2073B4407D455F8082C891A9B181A
:103B00008868CA68C26090601D4AB160126843F05C
:103B1000010093424860B8D31A4B20461968FFF75A
:103B20001BFFB2E7012083E7142A0CD802F15B05E2
:103B3000E80097E74368AD10012606FA05F52B4328
:103B4000436013469DE7542A03D81D0B6E35E800E9
:103B500088E7B2F5AA7F03D8DD0B7735E80081E767
:103B600040F25450824203D89D0C7C35E80079E73E
:103B70004FF47C707E2575E77C04002084040020CF
:103B80008408002038090020CDCC82415C8F8A4116
:103B9000CDCC92419A999B41CDCCA441D7A3AE41C3
:103BA000C3F5B8410000C44114AECF410000DC4170
:103BB000B81EE941C3F5F641CDCC02429A990A42BA
:103BC0000AD712425C8F1B42CDCC24429A992E42D6
:103BD0000000394200004442D7A34F4200005C423B
:103BE0007B146942C3F57642ECD182429A998A42AB
:103BF0000AD792425C8F9B42ECD1A442B89EAE425F
:103C00000000B9420000C442F6A8CF420000DC42E6
:103C10007B14E942A4F0F6425CCF02430A970A43C0
:103C20007BD412435C8F1B435CCF2443299C2E43DF
:103C3000000039430000444366A64F4300005C4344
:103C40007B146943A4F07643A4D082430A978A4345
:103C50007BD49243A4909B43A4D0A443719DAE43D4
:103C6000B8FEB8430000C44366A6CF430000DC435F
:103C70007B14E943A4F0F64300D00244AE970A4413
:103C80001FD5124400901B44A4D02444719D2E449F
:103C90005CFF38445CFF43440AA74F4400005C4487
:103CA0001F15694448F1764400D082445C978A44E9
:103CB0001FD5924452909B4452D0A4441F9DAE44C1
:103CC0005CFFB8445CFFC3440AA7CF440000DC4457
:103CD0001F15E944F6F0F64400D002455C970A450A
:103CE0001FD5124552901B4552D02445489D2E4564
:103CF0005CFF38455CFF43450AA74F4500005C4523
:103D0000F61469451FF1764514D082455C978A45C3
:103D10001FD592453D909B450A0A0000496E697483
:103D2000207465726D696E61746564200A0000001C
:103D3000737464696F2E633A20696E637265617390
:103D400065204D41585F535452494E475F53495A7D
:103D5000450A0D00000000000E32C93B1C08493C1A
:103D600091D0963C1C08C93CA73FFB3C15C6163DAC
:103D7000DAE12F3DA0FD483D6519623DAE2A7B3D4D
:103D8000FC1D8A3DA0A6963D452FA33DE9B7AF3D5A
:103D90004F3BBC3DB6BEC83DDE3CD53D06BBE13D1C
:103DA0002E39EE3D18B2FA3D8195033E57CF093EBC
:103DB0002D09103E6440163E9A771C3E32AC223EDE
:103DC0002BDE283E23102F3E7D3F353ED66E3B3EF8
:103DD000919B413EACC5473E29ED4D3EA514543E56
:103DE00082395A3EC05B603E5F7B663EFE9A6C3E07
:103DF0005FB5723EC0CF783E82E77E3E527E823E05
:103E00004486853E378E883ED9948B3E2C9A8E3ED2
:103E1000309E913E959F943EF9A0973E0EA19A3E0A
:103E2000849E9D3EAA9AA03E8195A33E088FA63E01
:103E30004087A93ED97CAC3E2271AF3E1B64B23EA6
:103E40007654B53ED044B83E3C31BB3EA81DBE3E84
:103E50007407C13EA2EEC33ED0D5C63E0FB9C93EDF
:103E6000FE9ACC3E9E7BCF3E9F59D23E5036D53EE9
:103E70006210D83E25E9DA3EF9BDDD3ECD92E03E46
:103E8000B263E33E4833E63E3F00E93EE6CBEB3E1D
:103E9000EE94EE3E575BF13E211FF43E4CE0F63EC1
:103EA00027A0F93E645DFC3E0118FF3EFFE7003F9E
:103EB000AF42023F0F9C033FC7F4043F884B063FCD
:103EC000F9A0073FC3F5083F95480A3F179A0B3FF3
:103ED000F2EA0C3FD6390E3F6A870F3FAED3103F50
:103EE000A31E123F4968133FF7AF143FFDF6153F7D
:103EF0000C3C173FCC7F183F3BC2193FB4021B3F1D
:103F0000DD411C3FB77F1D3F41BC1E3FD3F61F3F25
:103F10001630213F6267223F5E9D233F0BD2243F34
:103F2000C004263F2636273F3C66283F5B94293F46
:103F300083C02A3F5BEB2B3F3C142D3FCD3B2E3FF4
:103F400067612F3FB285303F05A8313F08C9323F36
:103F50006DE7333F2905353F4720363F153A373F58
:103F6000EC51383F7368393F5B7C3A3FF38E3B3FFF
:103F70003CA03C3FE6AE3D3F41BC3E3FA4C73F3F77
:103F80000FD1403F84D8413F01DE423F2EE2433F04
:103F9000BDE3443FFCE3453F43E2463F94DE473FF9
:103FA000EDD8483F4ED1493FB9C74A3F2CBC4B3FA3
:103FB000A7AE4C3F2C9F4D3FB98D4E3F4E7A4F3FA1
:103FC000ED64503FEC4C513F9C33523F5518533FEA
:103FD00016FB533F38DB543F63B9553F9695563F28
:103FE000D26F573F1748583F641E593FBBF2593FA5
:103FF00072C45A3F31945B3FFA615C3F232D5D3FB1
:10400000FDF65D3F38BE5E3FD4825F3F2046603F95
:10401000CD06613F82C5613F4182623F603C633FA4
:1040200088F4633F11AA643F4A5E653F3D0F663FD7
:10403000E0BE663FE36B673FF016683F5DBF683FD9
:10404000D465693FAB096A3F8AAB6A3FCB4A6B3F95
:1040500014E86B3F66836C3F191C6D3FD5B26D3F12
:10406000F1466E3F6FD86E3FF5676F3F84F56F3F47
:104070007380703FC408713F1D8F713F7F13723F83
:104080004295723F6614733F9291733F200C743FC8
:104090000E84743F05FA743F5D6D753FBEDE753F5B
:1040A0007F4D763F49BA763FCD23773F008C773FEF
:1040B000EDF0773FE353783F39B4783F9912793F79
:1040C000596E793F7AC7793FA31E7A3F2E737A3FA4
:1040D00019C57A3F0E157B3FBB617B3F19AD7B3F16
:1040E00030F57B3F4F3B7C3FD07E7C3FB1BF7C3F78
:1040F0009BFE7C3FE73A7D3F92747D3F9FAB7D3FC7
:10410000B5E07D3F2B137E3F03437E3FE3707E3F50
:104110007C9B7E3F1EC47E3FC8EA7E3F2C0E7F3FC5
:10412000982F7F3F664E7F3F946A7F3FCB847F3FCF
:10413000639C7F3F5BB17F3FB5C37F3F6FD37F3FC2
:1041400033E17F3F57EC7F3FDCF47F3FC2FA7F3F94
:10415000B0FE7F3F0000803FB0FE7F3FC2FA7F3F4E
:10416000DCF47F3F57EC7F3F33E17F3F6FD37F3FEE
:10417000B5C37F3F5BB17F3F639C7F3FCB847F3F75
:10418000946A7F3F664E7F3F982F7F3F2C0E7F3F84
:10419000C8EA7E3F1EC47E3F7C9B7E3FE3707E3F2D
:1041A00003437E3F2B137E3FB5E07D3F9FAB7D3FBA
:1041B00092747D3FE73A7D3F9BFE7C3FB1BF7C3FE1
:1041C000D07E7C3F4F3B7C3F30F57B3F19AD7B3F42
:1041D000BB617B3F0E157B3F19C57A3F2E737A3F3B
:1041E000A31E7A3F7AC7793F596E793F9912793F7A
:1041F00039B4783FE353783FEDF0773F008C773F59
:10420000CD23773F49BA763F7F4D763FBEDE753F7F
:104210005D6D753F05FA743F0E84743F200C743F4A
:104220009291733F6614733F4295723F7F13723FC2
:104230001D8F713FC408713F7380703F84F56F3FDD
:10424000F5676F3F6FD86E3FF1466E3FD5B26D3F59
:10425000191C6D3F66836C3F14E86B3FCB4A6B3F84
:104260008AAB6A3FAB096A3FD465693F5DBF683F6F
:10427000F016683FE36B673FE0BE663F3D0F663F69
:104280004A5E653F11AA643F88F4633F603C633F28
:104290004182623F82C5613FCD06613F2046603F5B
:1042A000D4825F3F38BE5E3FFDF65D3F232D5D3F0C
:1042B000FA615C3F31945B3F72C45A3FBBF2593F95
:1042C000641E593F1748583FD26F573F9695563F47
:1042D00063B9553F38DB543F16FB533F5518533FE6
:1042E0009C33523FEC4C513FED64503F4E7A4F3F70
:1042F000B98D4E3F2C9F4D3FA7AE4C3F2CBC4B3F42
:10430000B9C74A3F4ED1493FEDD8483F94DE473FB9
:1043100043E2463FFCE3453FBDE3443F2EE2433FDB
:1043200001DE423F84D8413F0FD1403FA4C73F3F09
:1043300041BC3E3FE6AE3D3F3CA03C3FF38E3B3FA1
:104340005B7C3A3F7368393FEC51383F153A373F51
:104350004720363F2905353F6DE7333F08C9323FD7
:1043600005A8313FB285303F67612F3FCD3B2E3FDF
:104370003C142D3F5BEB2B3F83C02A3F5B94293FCE
:104380003C66283F2636273FC004263F0BD2243FF9
:104390005E9D233F6267223F1630213FD3F61F3FC9
:1043A00041BC1E3FB77F1D3FDD411C3FB4021B3F98
:1043B0003BC2193FCC7F183F0C3C173FFDF6153F21
:1043C000F7AF143F4968133FA31E123FAED3103F0F
:1043D0006A870F3FD6390E3FF2EA0C3F179A0B3F20
:1043E00095480A3FC3F5083FF9A0073F884B063FB1
:1043F000C7F4043F0F9C033FAF42023FFFE7003F7B
:104400000118FF3E645DFC3E27A0F93E4CE0F63EFD
:10441000211FF43E575BF13EEE94EE3EE6CBEB3EC1
:104420003F00E93E4833E63EB263E33ECD92E03ED4
:10443000F9BDDD3E25E9DA3E6210D83E5036D53E64
:104440009F59D23E9E7BCF3EFE9ACC3E0FB9C93ECD
:10445000D0D5C63EA2EEC33E7407C13EA81DBE3EE7
:104460003C31BB3ED044B83E7654B53E1B64B23EB0
:104470002271AF3ED97CAC3E4087A93E088FA63E54
:104480008195A33EAA9AA03E849E9D3E0EA19A3E8F
:10449000F9A0973E959F943E309E913E2C9A8E3E79
:1044A000D9948B3E378E883E4486853E527E823E2E
:1044B00082E77E3EC0CF783E5FB5723EFE9A6C3E8C
:1044C0005F7B663EC05B603E82395A3EA514543E17
:1044D00029ED4D3EACC5473E919B413ED66E3B3EDD
:1044E0007D3F353E23102F3E2BDE283E32AC223E50
:1044F0009A771C3E6440163E2D09103E57CF093E68
:104500008195033E18B2FA3D2E39EE3D06BBE13DE2
:10451000DE3CD53DB6BEC83D4F3BBC3DE9B7AF3DE7
:10452000452FA33DA0A6963DFC1D8A3DAE2A7B3DAE
:104530006519623DA0FD483DDAE12F3D15C6163DE7
:10454000A73FFB3C1C08C93C91D0963C1C08493C49
:104550000E32C93B000000000E32C9BB1C0849BC2A
:1045600091D096BC1C08C9BCA73FFBBC15C616BDA4
:10457000DAE12FBDA0FD48BD651962BDAE2A7BBD45
:10458000FC1D8ABDA0A696BD452FA3BDE9B7AFBD52
:104590004F3BBCBDB6BEC8BDDE3CD5BD06BBE1BD14
:1045A0002E39EEBD18B2FABD819503BE57CF09BEB4
:1045B0002D0910BE644016BE9A771CBE32AC22BED6
:1045C0002BDE28BE23102FBE7D3F35BED66E3BBEF0
:1045D000919B41BEACC547BE29ED4DBEA51454BE4E
:1045E00082395ABEC05B60BE5F7B66BEFE9A6CBEFF
:1045F0005FB572BEC0CF78BE82E77EBE527E82BEFD
:10460000448685BE378E88BED9948BBE2C9A8EBECA
:10461000309E91BE959F94BEF9A097BE0EA19ABE02
:10462000849E9DBEAA9AA0BE8195A3BE088FA6BEF9
:104630004087A9BED97CACBE2271AFBE1B64B2BE9E
:104640007654B5BED044B8BE3C31BBBEA81DBEBE7C
:104650007407C1BEA2EEC3BED0D5C6BE0FB9C9BED7
:10466000FE9ACCBE9E7BCFBE9F59D2BE5036D5BEE1
:104670006210D8BE25E9DABEF9BDDDBECD92E0BE3E
:10468000B263E3BE4833E6BE3F00E9BEE6CBEBBE15
:10469000EE94EEBE575BF1BE211FF4BE4CE0F6BEB9
:1046A00027A0F9BE645DFCBE0118FFBEFFE700BF96
:1046B000AF4202BF0F9C03BFC7F404BF884B06BFC5
:1046C000F9A007BFC3F508BF95480ABF179A0BBFEB
:1046D000F2EA0CBFD6390EBF6A870FBFAED310BF48
:1046E000A31E12BF496813BFF7AF14BFFDF615BF75
:1046F0000C3C17BFCC7F18BF3BC219BFB4021BBF15
:10470000DD411CBFB77F1DBF41BC1EBFD3F61FBF1D
:10471000163021BF626722BF5E9D23BF0BD224BF2C
:10472000C00426BF263627BF3C6628BF5B9429BF3E
:1047300083C02ABF5BEB2BBF3C142DBFCD3B2EBFEC
:1047400067612FBFB28530BF05A831BF08C932BF2E
:104750006DE733BF290535BF472036BF153A37BF50
:10476000EC5138BF736839BF5B7C3ABFF38E3BBFF7
:104770003CA03CBFE6AE3DBF41BC3EBFA4C73FBF6F
:104780000FD140BF84D841BF01DE42BF2EE243BFFC
:10479000BDE344BFFCE345BF43E246BF94DE47BFF1
:1047A000EDD848BF4ED149BFB9C74ABF2CBC4BBF9B
:1047B000A7AE4CBF2C9F4DBFB98D4EBF4E7A4FBF99
:1047C000ED6450BFEC4C51BF9C3352BF551853BFE2
:1047D00016FB53BF38DB54BF63B955BF969556BF20
:1047E000D26F57BF174858BF641E59BFBBF259BF9D
:1047F00072C45ABF31945BBFFA615CBF232D5DBFA9
:10480000FDF65DBF38BE5EBFD4825FBF204660BF8D
:10481000CD0661BF82C561BF418262BF603C63BF9C
:1048200088F463BF11AA64BF4A5E65BF3D0F66BFCF
:10483000E0BE66BFE36B67BFF01668BF5DBF68BFD1
:10484000D46569BFAB096ABF8AAB6ABFCB4A6BBF8D
:1048500014E86BBF66836CBF191C6DBFD5B26DBF0A
:10486000F1466EBF6FD86EBFF5676FBF84F56FBF3F
:10487000738070BFC40871BF1D8F71BF7F1372BF7B
:10488000429572BF661473BF929173BF200C74BFC0
:104890000E8474BF05FA74BF5D6D75BFBEDE75BF53
:1048A0007F4D76BF49BA76BFCD2377BF008C77BFE7
:1048B000EDF077BFE35378BF39B478BF991279BF71
:1048C000596E79BF7AC779BFA31E7ABF2E737ABF9C
:1048D00019C57ABF0E157BBFBB617BBF19AD7BBF0E
:1048E00030F57BBF4F3B7CBFD07E7CBFB1BF7CBF70
:1048F0009BFE7CBFE73A7DBF92747DBF9FAB7DBFBF
:10490000B5E07DBF2B137EBF03437EBFE3707EBF48
:104910007C9B7EBF1EC47EBFC8EA7EBF2C0E7FBFBD
:10492000982F7FBF664E7FBF946A7FBFCB847FBFC7
:10493000639C7FBF5BB17FBFB5C37FBF6FD37FBFBA
:1049400033E17FBF57EC7FBFDCF47FBFC2FA7FBF8C
:10495000B0FE7FBF000080BFB0FE7FBFC2FA7FBF46
:10496000DCF47FBF57EC7FBF33E17FBF6FD37FBFE6
:10497000B5C37FBF5BB17FBF639C7FBFCB847FBF6D
:10498000946A7FBF664E7FBF982F7FBF2C0E7FBF7C
:10499000C8EA7EBF1EC47EBF7C9B7EBFE3707EBF25
:1049A00003437EBF2B137EBFB5E07DBF9FAB7DBFB2
:1049B00092747DBFE73A7DBF9BFE7CBFB1BF7CBFD9
:1049C000D07E7CBF4F3B7CBF30F57BBF19AD7BBF3A
:1049D000BB617BBF0E157BBF19C57ABF2E737ABF33
:1049E000A31E7ABF7AC779BF596E79BF991279BF72
:1049F00039B478BFE35378BFEDF077BF008C77BF51
:104A0000CD2377BF49BA76BF7F4D76BFBEDE75BF77
:104A10005D6D75BF05FA74BF0E8474BF200C74BF42
:104A2000929173BF661473BF429572BF7F1372BFBA
:104A30001D8F71BFC40871BF738070BF84F56FBFD5
:104A4000F5676FBF6FD86EBFF1466EBFD5B26DBF51
:104A5000191C6DBF66836CBF14E86BBFCB4A6BBF7C
:104A60008AAB6ABFAB096ABFD46569BF5DBF68BF67
:104A7000F01668BFE36B67BFE0BE66BF3D0F66BF61
:104A80004A5E65BF11AA64BF88F463BF603C63BF20
:104A9000418262BF82C561BFCD0661BF204660BF53
:104AA000D4825FBF38BE5EBFFDF65DBF232D5DBF04
:104AB000FA615CBF31945BBF72C45ABFBBF259BF8D
:104AC000641E59BF174858BFD26F57BF969556BF3F
:104AD00063B955BF38DB54BF16FB53BF551853BFDE
:104AE0009C3352BFEC4C51BFED6450BF4E7A4FBF68
:104AF000B98D4EBF2C9F4DBFA7AE4CBF2CBC4BBF3A
:104B0000B9C74ABF4ED149BFEDD848BF94DE47BFB1
:104B100043E246BFFCE345BFBDE344BF2EE243BFD3
:104B200001DE42BF84D841BF0FD140BFA4C73FBF01
:104B300041BC3EBFE6AE3DBF3CA03CBFF38E3BBF99
:104B40005B7C3ABF736839BFEC5138BF153A37BF49
:104B5000472036BF290535BF6DE733BF08C932BFCF
:104B600005A831BFB28530BF67612FBFCD3B2EBFD7
:104B70003C142DBF5BEB2BBF83C02ABF5B9429BFC6
:104B80003C6628BF263627BFC00426BF0BD224BFF1
:104B90005E9D23BF626722BF163021BFD3F61FBFC1
:104BA00041BC1EBFB77F1DBFDD411CBFB4021BBF90
:104BB0003BC219BFCC7F18BF0C3C17BFFDF615BF19
:104BC000F7AF14BF496813BFA31E12BFAED310BF07
:104BD0006A870FBFD6390EBFF2EA0CBF179A0BBF18
:104BE00095480ABFC3F508BFF9A007BF884B06BFA9
:104BF000C7F404BF0F9C03BFAF4202BFFFE700BF73
:104C00000118FFBE645DFCBE27A0F9BE4CE0F6BEF5
:104C1000211FF4BE575BF1BEEE94EEBEE6CBEBBEB9
:104C20003F00E9BE4833E6BEB263E3BECD92E0BECC
:104C3000F9BDDDBE25E9DABE6210D8BE5036D5BE5C
:104C40009F59D2BE9E7BCFBEFE9ACCBE0FB9C9BEC5
:104C5000D0D5C6BEA2EEC3BE7407C1BEA81DBEBEDF
:104C60003C31BBBED044B8BE7654B5BE1B64B2BEA8
:104C70002271AFBED97CACBE4087A9BE088FA6BE4C
:104C80008195A3BEAA9AA0BE849E9DBE0EA19ABE87
:104C9000F9A097BE959F94BE309E91BE2C9A8EBE71
:104CA000D9948BBE378E88BE448685BE527E82BE26
:104CB00082E77EBEC0CF78BE5FB572BEFE9A6CBE84
:104CC0005F7B66BEC05B60BE82395ABEA51454BE0F
:104CD00029ED4DBEACC547BE919B41BED66E3BBED5
:104CE0007D3F35BE23102FBE2BDE28BE32AC22BE48
:104CF0009A771CBE644016BE2D0910BE57CF09BE60
:104D0000819503BE18B2FABD2E39EEBD06BBE1BDDA
:104D1000DE3CD5BDB6BEC8BD4F3BBCBDE9B7AFBDDF
:104D2000452FA3BDA0A696BDFC1D8ABDAE2A7BBDA6
:104D3000651962BDA0FD48BDDAE12FBD15C616BDDF
:104D4000A73FFBBC1C08C9BC91D096BC1C0849BC41
:104D50000E32C9BB00000000789CA23D0C07223E29
:104D60000395713E4AB59F3E187DC53EB1E1E93ECF
:104D7000BD52063FB4C8163F2E39263FDA8F343F66
:104D8000B6B9413F00A94D3F3B53583FD9B1613FB0
:104D900094C1693F0A85703F2A00763F213C7A3FE3
:104DA00063457D3F022B7F3F0000803FAED87F3FB1
:104DB000FBCB7E3FD0F27C3FB2687A3FD847773F4B
:104DC00071AC733F03B26F3F0C766B3F1B12673FB2
:104DD00066A0623F7E3A5E3FA9F6593F3AE9553FE9
:104DE0008126523FE8BC4E3FDCBA4B3FD82A493FB0
:104DF000BA14473F677E453FD769443F62D6433F79
:104E00006AC1433FAF25443FFCFB443F7E3A463FE7
:104E1000B6D6473F8BC3493FE0F34B3FFB574E3F6E
:104E200019E2503F2783533FC32A563F29CB583FAF
:104E300097565B3F48BF5D3F72F95F3F98FA613F0D
:104E40008CB9633FC22F653FAC56663F5A2A673F15
:104E50007EA9673F6FD3673F26AA673FE830673F69
:104E60004C6C663FE162653FDA1B643F66A0623FBF
:104E700009F9603FE8305F3F7E525D3F49685B3F24
:104E80006B7D593FBB9B573F0CCD553F821C543F18
:104E9000AC90523F0E32513F3507503F62154F3FA5
:104EA000D95F4E3FE2E94D3F24B44D3FA1BE4D3F97
:104EB00007084E3F118D4E3FCF494F3F0439503FB9
:104EC000CA54513FEA95523F88F4533F6E69553FAB
:104ED00070EB563FB072583FA9F6593F2F6E5B3FBB
:104EE0000BD25C3FB01B5E3F42435F3F8143603F5C
:104EF000D717613F56BC613FB62D623F516B623F91
:104F00007E74623F3D49623F85EB613FF65D613FE4
:104F100027A5603F05C55F3F76C35E3FB9A55D3FEE
:104F200004735C3FE4315B3F8EE9593F90A0583FEA
:104F3000705F573F6B2B563F5F0C553FE206543F67
:104F4000DA20533F355E523F33C4513F7A53513FCD
:104F5000F90F513F09F9503FF90F513F2A52513F84
:104F6000F5BE513F1153523F910A533F87E1533FE2
:104F70005BD3543F7FD9553F0FEE563F740C583FDB
:104F8000CF2C593FE4495A3F255D5B3F52615C3F5E
:104F9000DF4F5D3FDD245E3FB6DB5E3F22715F3F4A
:104FA00033E15F3F992A603F064C603F7845603FA0
:104FB000F016603F65C25F3F28495F3F7DAE5E3FB0
:104FC00055F65D3F46255D3F963E5C3FD4485B3FCE
:104FD00095485A3F6744593F3A40583F4243573FEC
:104FE000BD52563F9B72553FC1A8543F1EF9533FD7
:104FF0005166533F49F4523FA4A5523F637A523F52
:105000007E74523FA392523FD4D4523FC139533F92
:105010007BBD533FB35E543FD218553F43E7553FE6
:1050200015C6563FB4B0573F38A1583F0C93593F6F
:1050300049805A3F5A645B3FA83A5C3FF4FD5C3FAD
:1050400050AA5D3F753C5E3F1CB15E3F4F065F3F1F
:10505000153A5F3F1F4B5F3F153A5F3FF7065F3FD3
:1050600014B35E3F64405E3F85B15D3FC0095D3F64
:10507000594C5C3F917E5B3F55A45A3F94C1593FC8
:10508000DBDC583F1AFA573FE71D573F274E563F84
:105090007A8D553FC6E1543F514E543F13D5533F8F
:1050A000FB79533FB03D533F2922533F6727533F7E
:1050B000124E533F3194533F77F8533FEA78543FB1
:1050C000EC12553FE8C1553F3C83563F5452573F81
:1050D000992A583FCD06593FA8E3593F9DBA5A3FF8
:1050E00066885B3F6B485C3F6FF55C3F7A8D5D3F48
:1050F0004E0B5E3F446E5E3F14B35E3F6FD85E3F23
:10510000ADDD5E3FCEC25E3F7B885E3F01305E3FDD
:105110005ABB5D3F232D5D3FFD875C3F7DD05B3FEC
:1051200042095B3F8B375A3FEE5F593F5986583FE4
:10513000B4B0573F43E2563F4720563FAD6E553F10
:105140000BD2543F594C543F87E1533F8A93533F0E
:10515000B263533FF853533FB263533F8A93533F75
:1051600087E1533F594C543F0BD2543FAD6E553FEE
:105170004720563F43E2563FB4B0573F5986583F09
:10518000EE5F593F8B375A3F42095B3F7DD05B3F13
:10519000FD875C3F232D5D3F5ABB5D3F01305E3F85
:1051A0007B885E3FCEC25E3FADDD5E3F6FD85E3F27
:1051B00014B35E3F446E5E3F4E0B5E3F7A8D5D3FA3
:1051C0006FF55C3F6B485C3F66885B3F9DBA5A3F1A
:1051D000A8E3593FCD06593F992A583F5452573FAB
:1051E0003C83563FE8C1553FEC12553FEA78543FA7
:1051F00077F8533F3194533F124E533F6727533F45
:105200002922533FB03D533FFB79533F13D5533FC2
:10521000514E543FC6E1543F7A8D553F274E563F7D
:10522000E71D573F1AFA573FDBDC583F94C1593FFF
:1052300055A45A3F917E5B3F594C5C3FC0095D3F8E
:1052400085B15D3F64405E3F14B35E3FF7065F3F4C
:10525000153A5F3F1F4B5F3F153A5F3F4F065F3F79
:105260001CB15E3F753C5E3F50AA5D3FF4FD5C3F64
:10527000A83A5C3F5A645B3F49805A3F0C93593FC0
:1052800038A1583FB4B0573F15C6563F43E7553F86
:10529000D218553FB35E543F7BBD533FC139533F96
:1052A000D4D4523FA392523F7E74523F637A523F0E
:1052B000A4A5523F49F4523F5166533F1EF9533F54
:1052C000C1A8543F9B72553FBD52563F4243573F82
:1052D0003A40583F6744593F95485A3FD4485B3F4E
:1052E000963E5C3F46255D3F55F65D3F7DAE5E3F99
:1052F00028495F3F65C25F3FF016603F7845603FD9
:10530000064C603F992A603F33E15F3F22715F3F67
:10531000B6DB5E3FDD245E3FDF4F5D3F52615C3FA9
:10532000255D5B3FE4495A3FCF2C593F740C583FF1
:105330000FEE563F7FD9553F5BD3543F87E1533F34
:10534000910A533F1153523FF5BE513F2A52513FEC
:10535000F90F513F09F9503FF90F513F7A53513F2F
:1053600033C4513F355E523FDA20533FE206543F8B
:105370005F0C553F6B2B563F705F573F90A0583FD7
:105380008EE9593FE4315B3F04735C3FB9A55D3F53
:1053900076C35E3F05C55F3F27A5603FF65D613F71
:1053A00085EB613F3D49623F7E74623F516B623FD6
:1053B000B62D623F56BC613FD717613F8143603FC6
:1053C00042435F3FB01B5E3F0BD25C3F2F6E5B3FA3
:1053D000A9F6593FB072583F70EB563F6E69553F82
:1053E00088F4533FEA95523FCA54513F0439503F25
:1053F000CF494F3F118D4E3F07084E3FA1BE4D3F55
:1054000024B44D3FE2E94D3FD95F4E3F62154F3F17
:105410003507503F0E32513FAC90523F821C543FF3
:105420000CCD553FBB9B573F6B7D593F49685B3F58
:105430007E525D3FE8305F3F09F9603F66A0623F02
:10544000DA1B643FE162653F4C6C663FE830673FC2
:1054500026AA673F6FD3673F7EA9673F5A2A673FF7
:10546000AC56663FC22F653F8CB9633F98FA613FE7
:1054700072F95F3F48BF5D3F97565B3F29CB583F6E
:10548000C32A563F2783533F19E2503FFB574E3FF5
:10549000E0F34B3F8BC3493FB6D6473F7E3A463F8A
:1054A000FCFB443FAF25443F6AC1433F62D6433FC4
:1054B000D769443F677E453FBA14473FD82A493FE2
:1054C000DCBA4B3FE8BC4E3F8126523F3AE9553F9C
:1054D000A9F6593F7E3A5E3F66A0623F1B12673FC6
:1054E0000C766B3F03B26F3F71AC733FD847773F89
:1054F000B2687A3FD0F27C3FFBCB7E3FAED87F3F95
:105500000000803F022B7F3F63457D3F213C7A3F77
:105510002A00763F0A85703F94C1693FD9B1613F47
:105520003B53583F00A94D3FB6B9413FDA8F343F56
:105530002E39263FB4C8163FBD52063FB1E1E93EC1
:10554000187DC53E4AB59F3E0395713E0C07223E2D
:10555000789CA23D00000000789CA2BD0C0722BEF2
:10556000039571BE4AB59FBE187DC5BEB1E1E9BEC7
:10557000BD5206BFB4C816BF2E3926BFDA8F34BF5E
:10558000B6B941BF00A94DBF3B5358BFD9B161BFA8
:1055900094C169BF0A8570BF2A0076BF213C7ABFDB
:1055A00063457DBF022B7FBF000080BFAED87FBFA9
:1055B000FBCB7EBFD0F27CBFB2687ABFD84777BF43
:1055C00071AC73BF03B26FBF0C766BBF1B1267BFAA
:1055D00066A062BF7E3A5EBFA9F659BF3AE955BFE1
:1055E000812652BFE8BC4EBFDCBA4BBFD82A49BFA8
:1055F000BA1447BF677E45BFD76944BF62D643BF71
:105600006AC143BFAF2544BFFCFB44BF7E3A46BFDF
:10561000B6D647BF8BC349BFE0F34BBFFB574EBF66
:1056200019E250BF278353BFC32A56BF29CB58BFA7
:1056300097565BBF48BF5DBF72F95FBF98FA61BF05
:105640008CB963BFC22F65BFAC5666BF5A2A67BF0D
:105650007EA967BF6FD367BF26AA67BFE83067BF61
:105660004C6C66BFE16265BFDA1B64BF66A062BFB7
:1056700009F960BFE8305FBF7E525DBF49685BBF1C
:105680006B7D59BFBB9B57BF0CCD55BF821C54BF10
:10569000AC9052BF0E3251BF350750BF62154FBF9D
:1056A000D95F4EBFE2E94DBF24B44DBFA1BE4DBF8F
:1056B00007084EBF118D4EBFCF494FBF043950BFB1
:1056C000CA5451BFEA9552BF88F453BF6E6955BFA3
:1056D00070EB56BFB07258BFA9F659BF2F6E5BBFB3
:1056E0000BD25CBFB01B5EBF42435FBF814360BF54
:1056F000D71761BF56BC61BFB62D62BF516B62BF89
:105700007E7462BF3D4962BF85EB61BFF65D61BFDC
:1057100027A560BF05C55FBF76C35EBFB9A55DBFE6
:1057200004735CBFE4315BBF8EE959BF90A058BFE2
:10573000705F57BF6B2B56BF5F0C55BFE20654BF5F
:10574000DA2053BF355E52BF33C451BF7A5351BFC5
:10575000F90F51BF09F950BFF90F51BF2A5251BF7C
:10576000F5BE51BF115352BF910A53BF87E153BFDA
:105770005BD354BF7FD955BF0FEE56BF740C58BFD3
:10578000CF2C59BFE4495ABF255D5BBF52615CBF56
:10579000DF4F5DBFDD245EBFB6DB5EBF22715FBF42
:1057A00033E15FBF992A60BF064C60BF784560BF98
:1057B000F01660BF65C25FBF28495FBF7DAE5EBFA8
:1057C00055F65DBF46255DBF963E5CBFD4485BBFC6
:1057D00095485ABF674459BF3A4058BF424357BFE4
:1057E000BD5256BF9B7255BFC1A854BF1EF953BFCF
:1057F000516653BF49F452BFA4A552BF637A52BF4A
:105800007E7452BFA39252BFD4D452BFC13953BF8A
:105810007BBD53BFB35E54BFD21855BF43E755BFDE
:1058200015C656BFB4B057BF38A158BF0C9359BF67
:1058300049805ABF5A645BBFA83A5CBFF4FD5CBFA5
:1058400050AA5DBF753C5EBF1CB15EBF4F065FBF17
:10585000153A5FBF1F4B5FBF153A5FBFF7065FBFCB
:1058600014B35EBF64405EBF85B15DBFC0095DBF5C
:10587000594C5CBF917E5BBF55A45ABF94C159BFC0
:10588000DBDC58BF1AFA57BFE71D57BF274E56BF7C
:105890007A8D55BFC6E154BF514E54BF13D553BF87
:1058A000FB7953BFB03D53BF292253BF672753BF76
:1058B000124E53BF319453BF77F853BFEA7854BFA9
:1058C000EC1255BFE8C155BF3C8356BF545257BF79
:1058D000992A58BFCD0659BFA8E359BF9DBA5ABFF0
:1058E00066885BBF6B485CBF6FF55CBF7A8D5DBF40
:1058F0004E0B5EBF446E5EBF14B35EBF6FD85EBF1B
:10590000ADDD5EBFCEC25EBF7B885EBF01305EBFD5
:105910005ABB5DBF232D5DBFFD875CBF7DD05BBFE4
:1059200042095BBF8B375ABFEE5F59BF598658BFDC
:10593000B4B057BF43E256BF472056BFAD6E55BF08
:105940000BD254BF594C54BF87E153BF8A9353BF06
:10595000B26353BFF85353BFB26353BF8A9353BF6D
:1059600087E153BF594C54BF0BD254BFAD6E55BFE6
:10597000472056BF43E256BFB4B057BF598658BF01
:10598000EE5F59BF8B375ABF42095BBF7DD05BBF0B
:10599000FD875CBF232D5DBF5ABB5DBF01305EBF7D
:1059A0007B885EBFCEC25EBFADDD5EBF6FD85EBF1F
:1059B00014B35EBF446E5EBF4E0B5EBF7A8D5DBF9B
:1059C0006FF55CBF6B485CBF66885BBF9DBA5ABF12
:1059D000A8E359BFCD0659BF992A58BF545257BFA3
:1059E0003C8356BFE8C155BFEC1255BFEA7854BF9F
:1059F00077F853BF319453BF124E53BF672753BF3D
:105A0000292253BFB03D53BFFB7953BF13D553BFBA
:105A1000514E54BFC6E154BF7A8D55BF274E56BF75
:105A2000E71D57BF1AFA57BFDBDC58BF94C159BFF7
:105A300055A45ABF917E5BBF594C5CBFC0095DBF86
:105A400085B15DBF64405EBF14B35EBFF7065FBF44
:105A5000153A5FBF1F4B5FBF153A5FBF4F065FBF71
:105A60001CB15EBF753C5EBF50AA5DBFF4FD5CBF5C
:105A7000A83A5CBF5A645BBF49805ABF0C9359BFB8
:105A800038A158BFB4B057BF15C656BF43E755BF7E
:105A9000D21855BFB35E54BF7BBD53BFC13953BF8E
:105AA000D4D452BFA39252BF7E7452BF637A52BF06
:105AB000A4A552BF49F452BF516653BF1EF953BF4C
:105AC000C1A854BF9B7255BFBD5256BF424357BF7A
:105AD0003A4058BF674459BF95485ABFD4485BBF46
