:020000040800F2
:100000006C8F0020A90C0008390D0008390D00087C
:10001000390D0008390D0008390D000800000000F6
:10002000000000000000000000000000390D000882
:10003000390D000800000000390D0008390D0008D6
:10004000390D0008390D0008390D0008390D000878
:10005000390D0008390D0008390D0008390D000868
:10006000390D0008390D0008390D00082D0500086C
:10007000990F0008390D0008390D0008390D0008E6
:10008000390D0008390D0008390D0008390D000838
:10009000390D0008390D0008390D0008390D000828
:1000A000390D0008390D0008390D0008390D000818
:1000B000390D0008390D0008390D0008390D000808
:1000C000390D0008390D0008390D0008390D0008F8
:1000D000390D0008390D0008390D0008950F00088A
:1000E000390D0008390D0008390D0008390D0008D8
:1000F000390D0008390D0008390D000829050008E0
:10010000390D0008390D0008390D000831050008C7
:10011000390D0008390D0008390D0008390D0008A7
:10012000390D0008390D0008390D0008390D000897
:10013000390D0008390D0008390D0008390D000887
:10014000390D0008390D0008390D0008390D000877
:10015000390D0008390D0008390D0008390D000867
:10016000390D0008390D0008390D0008390D000857
:10017000390D0008390D0008390D0008390D000847
:10018000390D0008390D000870B5114C114B60682D
:10019000A1681D68266802F039F880B96068E168D6
:1001A0000B4C02F033F800B970BD3146284600F020
:1001B000DFFEE1686068BDE8704002F049B8314692
:1001C000284600F0C5FEA168606802F041F8E5E746
:1001D00000000020840900204FF4406008B5C4F2FC
:1001E00002001021002201F0D5FD44F6FE73023B0F
:1001F000FDD14FF44060C4F2020010210122BDE89D
:10020000084001F0C7BD00BF70B5AE4C4FF4961367
:1002100005460E4623614FF4A840C4F200004FF497
:10022000003102F095FA40B12069421E2261002897
:10023000F1D1BDE8704000F0ABBE4FF4A840012101
:10024000C4F2000002F03AFA4FF4805121614FF4F9
:10025000A8400121C4F20000C0F2030102F068FAD4
:1002600028B92369581E2061002BF0D1E1E74FF433
:10027000A8400022C4F20000942102F03BFA4FF49F
:10028000805222614FF4A8408221C4F20000C0F2E3
:10029000070102F04DFA28B921694B1E236100299C
:1002A000F0D1C6E74FF4A840C4F20000294602F09E
:1002B00039FA4FF4805020614FF4A8408021C4F2F5
:1002C0000000C0F2070102F033FA28B921694A1E82
:1002D00022610029F0D1ACE74FF4A840C4F200003D
:1002E000314602F01FFA4FF4961323614FF4A840F1
:1002F0000421C1F20001C4F2000002F029FA38B969
:100300002069411E21610028F0D100F041FEEDE797
:100310004FF4A840C4F20000012102F0DDF94FF4CF
:10032000961222614FF4A840C4F200004FF400314D
:1003300002F00EFA58B12369581E2061002BF1D14A
:1003400000F026FE0446301B18BF012070BD4FF49C
:10035000A8400121C4F2000002F0B0F94FF480512E
:1003600021614FF4A8400121C4F20000C0F2030152
:1003700002F0DEF928B923695A1E2261002BF0D160
:10038000DEE74FF4A840C4F200009421002202F0FE
:10039000B1F94FF4805020614FF4A8408221C4F29B
:1003A0000000C0F2070102F0C3F928B921694B1E11
:1003B00023610029F0D1C3E74FF4A840C4F2000044
:1003C000294602F0AFF94FF48052226104E020691F
:1003D000411E21610028B3D04FF4A8400421C4F28B
:1003E0000000C1F2000102F0B3F90028EFD04FF491
:1003F000A840C4F20000012102F060F94FF48053DC
:1004000023614FF4A8400121C4F20000C0F20301AF
:1004100002F08EF928B92069421E22610028F0D12D
:100420008EE74FF4A840C4F20000942101224FF45B
:10043000805502F05FF925614FF4A845C4F200052C
:1004400002212846C1F2000102F082F928B921698F
:100450004B1E23610029EFD172E72846002102F0EC
:1004600053F9284601212B8B02F036F94FF48050C6
:1004700020614FF4A8404021C4F20000C1F2000105
:1004800002F066F928B921694A1E22610029F0D1DB
:1004900056E74FF4A840C4F2000002F045F94FF4CB
:1004A000A8434FF480512161C4F20003B3F800C0A7
:1004B0005FEA8C5208D52269511E2161002AF5D1CC
:1004C0003EE700BF0000002004464FF4A840012191
:1004D000C4F2000002F018F94FF4A8404FF4806114
:1004E000C4F20000C1F2000102F04EF92BE700BF98
:1004F00038B500F11904E4B2E62821464FF0200097
:1005000008D8FFF781FE214605462120FFF77CFE33
:10051000401938BDFFF778FE214605462120FFF738
:1005200073FE401938BD00BFFFF72EBEFFF72CBE8B
:100530004FF4705008B5C4F20000022101F0F4FF3E
:1005400070B10B484369022B0BD000F01FFD014630
:100550004FF47050C4F20000BDE8084001F0C6BF7F
:1005600008BD00F013FD0146042000F051FBECE74C
:100570000000002070B5154C154B6569012D0A4629
:1005800017D065689860194628461A6101F0E4FDA5
:100590006068012101F02CFE4FF47050C4F200009D
:1005A000838B5B0500D570BD0121BDE8704001F073
:1005B0008FBF66689860194630461A6101F0CCFD1D
:1005C0006068294601F014FEE6E700BF0000002045
:1005D000C4090020F8B540F20004C2F200044FF64E
:1005E000FF770D46B94228BF394606462563FFF717
:1005F000C1FF226B40F68413BA4238BF1746C2F2DD
:100600000003ED1B06EB470725601F600020F8BDC7
:1006100010B5012086B00121C0F2200000F034FDA9
:1006200001214FF0005000F03DFD00200024102279
:10063000032304A9C4F2020004928DF814308DF84B
:10064000174001F0E7FA20466946009401940394AC
:1006500000F0B0FA2046012100F0C6FA06B010BD45
:100660002DE9F047642990B0904600F2478148F2A6
:100670001F53C1EB0124C5F2EB1383FB0432E117D6
:10068000C1EB62105FFA80F90820012100F0FCFC48
:100690004FF44060022500240126C4F202000DA997
:1006A00010278DF839500D978DF838608DF83A4045
:1006B0008DF83B4001F0AEFA0720314600F0E4FC33
:1006C0004FF480604FF41073C4F202000DA90D9333
:1006D0008DF838508DF839508DF83A608DF83B40E0
:1006E00001F098FA4FF4806006210422C4F202005F
:1006F00001F056FB4FF4806004220921C4F202008D
:1007000001F04EFB4FF400604FF4A052C4F202001F
:100710000DA90D928DF838508DF839508DF83A406A
:100720008DF83B4001F076FA204604210622C4F2FF
:10073000020001F035FBA84D4FF40060C4F2020046
:100740000A21062201F02CFB6869022800F0FA80D9
:100750002046C4F202000DA90D9701F05BFA4FF498
:100760000060C4F202000C21062201F019FB4FF4D4
:100770000060022600248027C4F202000DA90D9714
:100780008DF838608DF839608DF83A408DF83B402F
:1007900001F040FA4FF4006006220721C4F2020083
:1007A00001F0FEFAFFF718FD01214FF4001000F0F0
:1007B00079FC4FF4A840C4F2000001F0BBFE10AF7A
:1007C00048F2A0634FF4804AC0F201034BF6FF7277
:1007D0004FF4A8406AF31F40012147F81C3DADF8D3
:1007E0002A2033234FF48062ADF82E20ADF82C3050
:1007F000ADF830A0ADF8284001F052FF4FF4A8400A
:100800006AF31F40394601F0CDFE01213046FFF763
:10081000FBFCAF2106460420FFF7F6FCDFF8BCA185
:10082000AF23844681218AF8003005206644FFF713
:10083000EBFC042102460620B618FFF7E5FC8446CF
:1008400048466644FFF754FE6969022900F09C801F
:100850009E210220FFF7D8FC002103460A20F4184D
:10086000FFF7D2FC69690229044404D00E20042158
:10087000FFF7CAFC241800212720FFF7C5FC0F2131
:1008800084461F2004EB0C06FFF7BEFC0A2102463B
:100890001A20B418FFF7B8FC0A2103461B20E618FB
:1008A000FFF7B2FC012184464FF4004006EB0C0434
:1008B00000F0F8FB4FF47050C4F2000001F054FD5A
:1008C0004FF4705000264FF40072C4F2000001A9EA
:1008D000CDF80C80ADF80660ADF80860ADF810609A
:1008E000ADF80420ADF80A2001F076FD6869022811
:1008F00039D034B1012010B0BDE8F0874FF0640961
:10090000C2E66E69344F012E6AD06A69012A59D055
:10091000FFF77EFE4FF47050C4F2000071210122F7
:1009200001F0F0FD00240FA8332201238DF83C20B4
:100930008DF83D408DF83E408DF83F3001F032FF9C
:100940002046D8E73046314600F09EFB00200326C3
:10095000C4F202000DA90D978DF838608DF83B4068
:1009600001F058F903E701214FF0005000F09AFB25
:10097000304605A905960696089600F01BF9304604
:10098000012100F031F9B4E701210820FFF73CFC18
:10099000012107460920FFF737FCC0213F180E2030
:1009A000FFF732FCBE19024621461420B618FFF7A5
:1009B0002BFC21468446152006EB0C04FFF724FC93
:1009C000261845E74FF47050C4F20000022101F0F0
:1009D0008FFD00208FE700BF000000208C08002062
:1009E000B869314600F050FB2146786801F000FC00
:1009F000786801F0AFFA1D4BFA69DAF804105A6012
:100A00004022DA604FF6FE721A614FF480629A61FA
:100A10004FF40062DA614FF400521A624FF48072B0
:100A20005A624FF4403219609A6219469C605C61C8
:100A3000DC621C635C639C63786801F08DFB786802
:100A40001021324601F026FC78680821324601F078
:100A500021FC396A8DF83D400FA88DF83C108DF8C7
:100A60003E408DF83F6001F09DFE4EE7C409002036
:100A7000F0B5068ACB880F89B1F80AE026F4405217
:100A800016040446320C42EA030C88880D46898914
:100A9000A4F810C0A68926F4B05323F00C0247EA4C
:100AA000000C16044CEA0E00360C83B243EA060230
:100AB000A281A08A20F440731E04320C42EA010095
:100AC00085B0A082684600F081FA4FF48053C4F2EA
:100AD00001039C4233D04FF4A051C4F201018C4277
:100AE0002DD0B4F80CE0029B0FFA8EF000282DDB1D
:100AF000286803EB830E0EEB8E018600B1FBF6F146
:100B000048F21F53A689C5F2EB13A3FB015042091B
:100B10000FFA86FC64251601BCF1000F02FB1512CA
:100B20001DDB12013232A3FB0250C0F3431545EA2C
:100B300006031FFA83FEA4F808E005B0F0BDB4F880
:100B40000CE0039B0FFA8EF00028D1DA2A6803EB41
:100B5000830303EB830C5500BCFBF5F1D0E7D10018
:100B60003231A3FB0112C2F342133343E1E700BF6A
:100B7000838929B923F400510B041A0C8281704730
:100B800099B241F400538381704700BFCA05D10D6B
:100B900081807047838A9BB21AB923EA010282825C
:100BA0007047194381827047038819420CBF0020A7
:100BB0000120704770B491E860004FF4E8438C68FE
:100BC000CA68C4F2000335432C431E6840F6FE7128
:100BD00001FA00F5224326EA050502FA00F145EA8A
:100BE0000100186070BC70474FF4E843C4F2000382
:100BF0001A6831B9012101FA00FC22EA0C021A60DC
:100C00007047012101FA00F141EA020018607047C3
:100C100082B04FF4E843C4F2000300220192019332
:100C2000019A083210180190019B196002B07047B8
:100C300070B5044608200D46164602F0B7F90023A9
:100C40000570467043603CB1224600E01A46536886
:100C5000002BFBD15060204670BD00BFF8B50446A4
:100C60000F46B8B106788E4204D00BE02B78B34221
:100C70002C4607D16568204602F0A0F9002DF5D179
:100C80002846F8BD60683946FFF7E8FF25466060F2
:100C90002846F8BD0546F3E708B903E0184643685F
:100CA000002BFBD1704700BF70B51D491D4CA14200
:100CB00021D21D4802460B4652F8046B43F8046BE0
:100CC000CD436519A342C5F3800514D23DB1126826
:100CD0001A6001F10803A34200F108020BD2114689
:100CE000184651F8045B526840F8045B5A60031DD3
:100CF0000A1DA342F3D30D480D494FF0000288426C
:100D0000B8BF40F8042BFADBDFF82800016841F493
:100D10007001016001F05EF8BDE8704000F07EB83F
:100D2000000000208C080020689B00088C08002030
:100D30006C0F002088ED00E0FEE700BF70B50820D2
:100D400082B0012100F0A0F90120014600F09CF9D9
:100D50004FF4406000240126032569464FF4704398
:100D6000C4F2020000938DF804608DF806408DF8FF
:100D700005508DF8074000F04DFF2046C4F20200F8
:100D8000694600968DF804408DF806408DF80550B0
:100D90008DF8074000F03EFF02B070BD2DE9F04134
:100DA0004FF0000886B00121C4F202084FF4003071
:100DB00000F078F90024022704220126404604A905
:100DC00004928DF814708DF815708DF816408DF81A
:100DD00017604FF4884500F01DFF40463946072252
:100DE00000F0DEFFC4F200054FF416500090082317
:100DF00028466946ADF80440ADF80640ADF8084015
:100E0000ADF80C40ADF80A30FFF732FE2846314607
:100E1000FFF7AEFE06B0BDE8F08100BF2DE9F04F50
:100E200083B0FFF78BFFFFF7B9FF01F0FFFC414BE9
:100E30000190019C002203F5A060191D1A805A80C0
:100E40009A80083383424A80F7D13B4F01940024B3
:100E5000C4F25C343C604CF6CD430024C3F6CC5362
:100E60007C6003243C737C73BB62FB627B63BB636B
:100E7000FB637B644CF6CD494FF0000B4FF0000450
:100E80004CF6CD434FF07E5EC3F64C73C3F64C690F
:100E90004FF07C5AC4F2201BC4F2C0144BF68032CF
:100EA000C7F808E0C7F810E0C7F814E0C7F824E076
:100EB000FB647B655521C7F81890C7F81C903C620D
:100EC0000420C7F830A0C7F840A0C7F848B0C7F85A
:100ED00050B0FFF7C5FB4FF420711648174E184D60
:100EE000DFF86880FFF776FB164800F0FBFA16483B
:100EF00000F0F8FA4FF00109019C0BE03068FFF7B1
:100F0000CBFEA8B1017885F8009008EB810252F879
:100F1000600C3860204601F01BFD01460028EDD032
:100F2000204601F0AFFE3068FFF7B6FE0028E9D199
:100F30002870EFE7640A0020000A002094080020CF
:100F4000600A0020F8380008FC38000868370008FC
:100F500008B54FF44060C4F202004FF4805100F035
:100F600015FF4FF4A070BDE8084000F0CBBA00BFF9
:100F700008B54FF44060C4F202004FF4805100F015
:100F800007FF0020BDE8084000F0BCBA0020704711
:100F900000207047704700BF46F228004FF4084118
:100FA00008B5C4F20200C1F2000101F08BF900B9EA
:100FB00008BD46F228004FF40841C4F20200C1F215
:100FC0000001BDE8084001F0ADB900BF10B44FF416
:100FD0006053C4F202039A6802F00C02042A26D07D
:100FE000082A2AD04FF41052C0F2F40202604FF4E3
:100FF000605CC4F2020C2349DCF80830C3F303142C
:101000000B5D22FA03F24260DCF80840C4F382234D
:10101000CC5C22FA04F48460DCF80830C3F3423C70
:1010200011F80C1022FA01F3C36010BC70474FF4A2
:101030009052C0F27A020260D9E75C685A68596837
:1010400014F4800F4FF4605C14BF4FF490534FF4CE
:101050001053C4F2020C14BFC0F27A03C0F2F403BE
:1010600002F03F02C1F38814B3FBF2F1DCF8043064
:10107000C3F3014201FB04F1541C6300B1FBF3F222
:101080000260B4E7340000204FF46053C4F202035E
:101090001A6B19B922EA00011963704710431863EB
:1010A000704700BF4FF46053C4F202031A6C19B9C1
:1010B00022EA00011964704710431864704700BFAA
:1010C0004FF46053C4F202031A6A19B922EA00010C
:1010D0001962704710431862704700BF4FF46053A5
:1010E000C4F202035A6A19B922EA00015962704730
:1010F00010435862704700BF10B504464FF4884053
:10110000C4F200004021FFF74FFD0028F6D04FF455
:101110008840C4F200002146BDE81040FFF736BD0C
:10112000F8B5561E092B1D46044629D8002E35DD7C
:101130000346471E03F8011BC043BF1807EB000C12
:10114000BB420CF001000BD018B103F8011BBB42ED
:1011500006D0184600F8011B5970431CBB42F8D159
:10116000A4194CF6CD41CCF6CC41A1FB0510C30827
:1011700003EB8301A5EB4105303525701046F8BD22
:101180004CF6CD40CCF6CC40A0FB0323DB08204638
:101190003246FFF7C5FF2418421CE2E70122E0E7D0
:1011A00070B583EAE375A5EBE375013A092D0446B2
:1011B0001CD94CF6CD40CCF6CC40002BA0FB05034F
:1011C0004FEAD30335DB2046FFF7EAFF241801304E
:1011D0004CF6CD42CCF6CC42A2FB0521CB0803EB6A
:1011E0008302A5EB42053035257070BD002BB8BFDA
:1011F000013A002A22DD00F8011BA618E443341945
:10120000B04204F001040BD01CB100F8011BB04245
:1012100006D0044604F8011B4170601CB042F8D1AE
:101220003446501C002BD3DA2D2104F8011B013069
:10123000CEE75B422046FFF7B3FFC7E70120F1E7A7
:10124000F0B583B01E46089D531E2F09044629D1D0
:10125000002B2FDD04F1FF3C00F8011B9444E74311
:101260006744604507F001070BD01FB100F8011B70
:10127000604506D0074607F8011B4170781C6045A1
:10128000F8D1E41805F00F05092D08D926B957350E
:101290002570104603B0F0BD37352570F9E73035BD
:1012A0002570F6E71A4633460097FFF7C9FF241862
:1012B000421CE7E70122E5E72DE9F043064683B04B
:1012C00088461F4608B100230370002513785BB1E0
:1012D000454580F09B80252B0BD006F8013B013261
:1012E00001351378002BF3D1A84540F28F8033707D
:1012F00088E05078252838D030283BD0A0F1300342
:10130000541CDAB22021092A3CD8A44600221CF839
:10131000010F02EB820903EB4902A0F130035FFAEF
:1013200083F90134B9F1090F02F0FF02EFD9134636
:1013300005EB030CE0453CBFC5EB0802D2B25838C0
:1013400020285DD8DFE800F0515C5C5C5C5C5C5C94
:101350005C5C5C4B445C5C5C5C445C5C5C5C5C5C0E
:101360005C5C5C365C2F5C5C210006F8010B023291
:101370000135ABE79078A0F13003941CDAB230214C
:10138000092AC2D900231A46D2E7D7F800E0002381
:101390003046CDF800E0FFF753FF04370346621CE8
:1013A000F6182D1892E73B683046FFF7B9FE043770
:1013B0000346F4E73A6813780437002B2BD000205B
:1013C000335412F8013F0130002BF9D10346E6E710
:1013D0003B683046FFF7E4FE04370346DFE7386832
:1013E0000123307004371846D9E7D7F800C001232D
:1013F0003046CDF800C0FFF723FF04370346CEE7A1
:101400004FF0FF35284603B0BDE8F083002106F811
:10141000011C013DF6E71846C1E700BF10B40C46B9
:1014200013466421224610BCFFF746BF094B1B68D8
:101430009A688A4210B5044602D0D868884204D11E
:10144000E0B2FFF759FE204610BD4FF0FF342046B2
:1014500010BD00BF4800002070B5054600780E465C
:1014600050B1002403E015F8010F013428B13146D2
:10147000FFF7DCFF431CF6D10446204670BD00BFD9
:10148000F0B5104E8E46174604460FCEA3B019ADE8
:101490000FC50FCE0FC53368684671463A462B60BC
:1014A000FFF7BCFF632806DD07490868C16819A873
:1014B000FFF7D2FFFEE768462146FFF7CDFF23B0D6
:1014C000F0BD00BF103900084800002040F2480C71
:1014D000C2F2000C0A46DCF800108B680146184680
:1014E000FFF7CEBF0FB400B583B004AB53F8040BC5
:1014F00019460193FFF7EAFF03B05DF804EB04B06F
:10150000704700BF2DE9F04781464FF440602DED54
:10151000048BC4F202004FF4005100F037FCA34BDF
:10152000A34C1A78A34D02B39FEDA31AD4ED022A5F
:1015300095ED0A2A94ED045AD5ED0E5AF7EE001AED
:1015400031EEE26A62EE010A31EEC57A25EE810AD9
:10155000C6EE206A01200021197020706070C7EE6D
:10156000007AC4ED016AC4ED037A944E33781BBB54
:1015700027788F4B042F0DD095ED0D8ADFED8E4A25
:1015800093ED024A68EE243A042284EE233A1A705C
:1015900083ED053A6078864B04280DD0D5ED116AAD
:1015A000DFED857AD3ED049A26EEA79A0421C9EEE1
:1015B000898A5970C3ED068ADFED7F8A95ED0C3A72
:1015C000D5ED0B2AD5ED105A95ED0F5AB7EE002A3E
:1015D00032EE436A62EEA81A72EE650A25EE281A08
:1015E00086EE217A764E774F4FEA490806F5207A43
:1015F000C9EBC9734644C2444FEA430980EE810AED
:1016000084ED077A84ED080A9FED6F8A95ED129AB2
:1016100069EE084A94ED094AC4EEA83A73EE847A5A
:10162000F4EEC87AF1EE10FAC4ED097A04DD77EE33
:10163000C87A5F4AC2ED097A95ED140ABCEEE77AE2
:1016400060EE087A17EE101AC7EEA89A88B207EB78
:10165000800CD4ED0A6A95ED137A79EEA67ADCED6A
:10166000004AB5EE407AF1EE10FAF4EEC87A14BFF3
:1016700067EE244ADFED554AF1EE10FAC4ED0A7A1E
:1016800004DD77EEC87A4A4BC3ED0A7ABCEEE71A5E
:10169000D5ED151A11EE103A99B207EB810C9CEDBD
:1016A000006A61EE860AF7EE007A30EEA70AD4ED02
:1016B0000B0AB5EE407AD5ED017A95ED007AFDEE94
:1016C000E06A40EE077A16EE900AF1EE10FAD5EDD8
:1016D000059A18BFB7EE001A83B214BF74EE814AA0
:1016E000F7EE004A95ED049A67EEA93A95ED024AA5
:1016F0005A1C92B227EE893A02EE102A63EE842A2F
:1017000005EE903A23EE085A22EE886AF8EEE51AC2
:10171000B8EEC21A95F80CE085EE289AB2F5806F03
:1017200008BF0022C6EE289A70EEE16A31EE607AB8
:10173000BEF1030F00F22881DFE81EF01601100150
:101740000A010400224901EB820201EB8303D2ED7E
:10175000003A93ED003A66EEA32A47EE032AC4ED61
:101760000C2A94ED0D4ABDEEC41A95F80DC011EE89
:10177000103A9BB25A1C92B207EE102A00EE903A31
:10178000F8EEC76AB8EEE00A76EEC46A34EE407A44
:10179000B2F5806F08BF0022BCF1030F00F2D380C6
:1017A000DFE81CF0C100F700BB001800580A002059
:1017B00098080020000A002000803B47600A0020B3
:1017C000640A002034390008000080440000000052
:1017D00034790008D24800EB820200EB830392EDDB
:1017E000002A93ED005A27EE027A06EE857A84ED00
:1017F0000E7A95ED086AD4ED041AF7EE005A64EEFD
:10180000860A31EEA51ADFEDC76A20EE810ADFED08
:10181000C63A20EE274A95ED073A64EE267AD5EDD2
:10182000064AC7EEA37AD4ED0C2A27EE037A04EE1B
:10183000A27AF4EEE57AF1EE10FAC4ED107A84EDB6
:101840000F7A00F3CC819FEDB93A27EEA72ADFED9E
:10185000B84A67EE832A22EE245AF0EE654A47EE34
:10186000E24A22EE055A75EEE75AD5ED096A94ED83
:10187000124A64EEA60A9FEDAF6A00EEC47AD4ED78
:10188000137A27EE050AD4ED143AF0EE406A47EEDB
:10189000866A45EEA36A94ED153AB0EE667A03EED9
:1018A000067AD4ED164A05EEA47AD4ED172AB0EEE6
:1018B000472A02EE862A94ED185AF0EE427A45EE57
:1018C000857AD4ED191AB0EE671A01EE861A94F8EB
:1018D00000C0F0EE413A44EE253AC4ED110A84ED21
:1018E0000F0AC4ED146A84ED130A84ED167AC4ED70
:1018F000156AC4ED187A84ED177AC4ED123AC4ED76
:10190000197AC4ED1A3ABCF1040F5CD8DFE81CF078
:1019100058013A01470005011E01874901EB820287
:1019200001EB83035BE7854901EB820001EB830E4A
:1019300010ED3E6A5EED3E1A27EE067A06EEA17ABB
:1019400084ED0E7A55E707EB820207EB830346E747
:10195000794800EB820200EB8303F8E6784901EB5B
:10196000820201EB8303F2E6744800EB820200EB93
:10197000830E52ED3E5A1EED3E2A26EEA55A07EE84
:10198000025A84ED0C5AECE607EB820207EB830364
:10199000DDE66B4800EB820200EB83031FE794ED6A
:1019A000021A94ED074A95ED0C7A71EE440A654BE4
:1019B000F4EEC70AF1EE10FAC4ED020A03D50320D3
:1019C00083ED027A187094F801E0BEF1040F18D884
:1019D000DFE80EF0A08303806500D4ED047AD4ED37
:1019E000083A95ED107A37EEE33A564BB4EEC73A23
:1019F000F1EE10FA84ED043A03D5032183ED047A65
:101A000059709FED517A94ED021A94ED1A4A61EEE5
:101A1000070A4C4B60EE847AF4EEC77AF1EE10FAC6
:101A2000C4ED0F7A40F3CF8083ED0F7A47F6FF7352
:101A3000D4ED0B1A39EE219A06EB090000EB080EE3
:101A4000B4EEC89AF1EE10FA338084ED0B9AAEF83A
:101A5000023004DD39EE489A3A4B83ED0B9A94ED4F
:101A60000D6A79EE869AF4EEC89AF1EE10FAC4ED9A
:101A70000D9A04DD79EEC89A324AC2ED0D9A043609
:101A800056457FF4C3AD4FF44060C4F202004FF4FA
:101A90000051BDEC048BBDE8F04700F079B994ED3E
:101AA000040AD4ED065A70EE656A264BF5EEC06A5C
:101AB000F1EE10FAC4ED046AA3D5002100224FF420
:101AC000406019615A70C4F202004FF4004100F006
:101AD0005FF996E7286C206193E7D4ED044AD4EDD2
:101AE000032A34EEA22AB7EE007AB4EEC72AF1EE4A
:101AF00010FA84ED042A134B83DD02224FF4406078
:101B000083ED047A5A70C4F202004FF4004100F0F1
:101B10003DF976E70023236173E72A6BA26052E761
:101B200034790008E17A943F0080BB469A99193EC7
:101B30003D44B33E9A99993E346900082C4A000806
:101B4000345900089808002000FEFF4694ED025A20
:101B500094ED056A75EE461A294BF5EEC01AF1EEC2
:101B600010FAC4ED021A7FF52EAF00200021986014
:101B70004FF440601970C4F202004FF4004100F0CD
:101B800007F920E794ED027A94ED010A77EE005A06
:101B9000B7EE007AF4EEC75AF1EE10FAC4ED025A2D
:101BA000174B7FF710AF02214FF44060197083ED9F
:101BB000027AC4F202004FF4004100F0E7F802E7B5
:101BC0000023A360FFE69FED0F7AF4EEC77AF1EEF3
:101BD00010FA0ED583ED0F7A48F2010328E7084A80
:101BE0009FED095AC2ED105ADFED084ADFED085AA1
:101BF0003BE6BDEEE77A17EE10CA1FFA8CF317E743
:101C00009808002000FEFFC63D44B33E9A99593F14
:101C1000000000002DE9F00F84B000230A68009155
:101C20001C464FF0010C05E0B04541D06C1CBB1CBC
:101C3000102C62D00CFA04F7651C07EA02090CFAB2
:101C400005F6B94506EA020803F10207ECD101687E
:101C5000DDF800B00191032101FA03F16FEA010AF6
:101C600001999BF804B0CDF808A00AEA010AC0F86F
:101C700000A001680BFA03FA0BF1FF3B5FFA8BFB44
:101C80004AEA010ABBF1010FC0F800A039D9C468C3
:101C90000099DDF808A091F807900AEA0401C160F4
:101CA000C46809FA03F141EA0403B045C360BDD139
:101CB0004FF0030A0668009C0AFA07F3DB43247915
:101CC00003EA060101600668611E04FA07F9CCB256
:101CD00049EA0606012C06603BD9C468009E03EA67
:101CE0000401F679C160C46806FA07F343EA040107
:101CF0006C1CBB1C102CC1609CD104B0BDE8F00F63
:101D000070470099D0F808A0497901910099897924
:101D10000391029901EA0A0BC0F808B00199D0F8C2
:101D200008B001FA03F141EA0B0AC0F808A0D0F8A4
:101D300004A02AEA0909DDF80CA0C0F80490D0F844
:101D400004900AFA04FA1FFA8AF141EA090444608D
:101D50009DE78168DDF800A003EA01069AF80640D5
:101D60009AF805908660816809FA07F949EA010640
:101D70008660416821EA08064660466804FA05F173
:101D80008CB244EA06014160A7E700BF01837047B7
:101D9000418370470AB9418370470183704700BF90
:101DA000CB08083301F00701890030B450F8235004
:101DB0000F2404FA01FC25EA0C0440F8234050F8F3
:101DC000234002FA01F242EA040140F8231030BC39
:101DD000704700BF4FF46D42CEF200024FF46053E3
:101DE000D2F88800C4F2020340F47001C2F88810EF
:101DF0001868002240F0010119609A60186843F2E7
:101E0000100120F0847C2CF48030C2F20041186074
:101E10005960186882B020F480211960DA6000925D
:101E20000192186840F480321A601A4603E0009864
:101E3000B0F5A06F09D0116801F400330193009848
:101E4000411C0091019B002BF1D04FF4605CC4F267
:101E5000020CDCF8002012F4003323D0012301939C
:101E60000199012922D04FF46052C4F202024FF4CA
:101E700081409168C3F2000021F400039360C2F82E
:101E80008400116841F08063136010680301FCD581
:101E90004FF46D4CCEF2000C4FF00062CCF80820ED
:101EA00002B07047019301990129DCD14FF46050D1
:101EB000C4F202004FF4E04C016CC4F2000C41F09B
:101EC00080530364DCF8002042F48041CCF8001019
:101ED00083688360816841F460428260836845F270
:101EE000084243F4E051C0F24072816042600368EE
:101EF00043F080720260014608684FF4605382012B
:101F0000C4F20203F8D54FF4705CC4F2020C40F244
:101F10000561CCF800109A6822F003009860996877
:101F200041F002029A609A6802F00C000828FAD187
:101F300099E700BF064A48F670731168C2F20003C1
:101F4000002908BF1946081810600846704700BFEE
:101F500004090020016846F21002002321F001016B
:101F6000C4F202020160036043608360C3600361E6
:101F70002123904243616AD046F22802C4F2020251
:101F800090426CD046F24002C4F2020290426ED0FF
:101F900046F25801C4F20201884271D046F2700143
:101FA000C4F20201884273D046F28802C4F20202EF
:101FB000904277D046F2A002C4F2020290423CD096
:101FC00046F2B801C4F2020188427DD046F21041C7
:101FD000C4F2020188427FD046F22842C4F20202D3
:101FE000904200F0818046F24042C4F202029042E8
:101FF00000F0828046F25841C4F20201884200F0AB
:10200000848046F27041C4F20201884200F085806B
:1020100046F28842C4F20202904200F0888046F202
:10202000A042C4F20202904200F08B8046F2B84116
:10203000C4F2020188423FD070474FF4C04CC4F252
:10204000020C0020C2F23D00CCF80C0070474FF4A7
:10205000C04CC4F2020C3D20CCF8080070474FF48D
:10206000C043C4F202034FF47461996070474FF4A7
:10207000C04CC4F2020C4FF47410CCF80800704746
:102080004FF4C043C4F202034FF074629A60704789
:102090004FF4C04CC4F2020C3D20C2F20000CCF858
:1020A0000C0070474FF4C043C4F202034FF4746154
:1020B000C2F20001D96070474FF4C843C4F2020372
:1020C0004FF03D52DA60B7E74FF4C043C4F2020369
:1020D0004FF03D52DA6070474FF4C84CC4F2020C26
:1020E0003D20CCF8080070474FF4C843C4F2020307
:1020F0004FF47461996070474FF4C84CC4F2020CFD
:102100004FF47410CCF8080070474FF4C843C4F281
:1021100002034FF074629A6070474FF4C84CC4F2E7
:10212000020C3D20C2F20000CCF80C0070474FF4C6
:10213000C843C4F202034FF47461C2F20001D960D3
:1021400070474FF4C84CC4F2020C0020C2F23D00AC
:10215000CCF80C00704700BF2DE9F00F0368D1F8F0
:102160000090D1F80CA0D1F81480D1F818C0CF6934
:102170000E6A4D6A8C6A4A6BD1F838B086B001930A
:102180000B6B0493CB6A05930B6902934B688968C8
:1021900003934AEA090343EA080343EA0C033B4377
:1021A00043EA060949EA050545EA040C4CEA02033C
:1021B00048F23F08019ACFF21C0843EA0B0502EAF5
:1021C000080845EA080404604369049A059C23F062
:1021D000070542EA040C4CEA0502039B029D42619A
:1021E00045608360C16006B0BDE8F00F704700BF76
:1021F000036819B923F001010160704743F001033E
:1022000003607047406880B2704700BF10B44FF45D
:10221000C84246F20F444FF4C04CC4F20202C4F26A
:102220000204C4F2020CA04288BF94468A0040F621
:102230007D704CBFDCF80420DCF80020C0F67D7017
:1022400001EA000313420CBF0020012010BC7047BC
:1022500030B44FF4C84246F20F444FF4C043C4F2C6
:102260000204C4F20202C4F20203A04288BF134671
:10227000880007D440F67D75C0F67D750D409D60E1
:1022800030BC704740F67D7CC0F67D7C01EA0C00D6
:10229000D860F5E70B0604D543697AB143F08003B3
:1022A0004361802906D0036801F01E011AB923EAB0
:1022B00001020260704719430160704723F08003F8
:1022C0004361EEE740F63C7C30B44FF4C04246F246
:1022D0000F454FF4C844C0F63C7CC4F20205C4F27A
:1022E0000204C4F2020201EA0C03A84288BF22469B
:1022F000A3B1036803F01E0000EAD12488004CBF9C
:102300005068106840F67D72C0F67D72114008403A
:1023100002D0201C18BF012030BC7047446904F073
:102320008004EBE730B44FF4C84246F20F444FF458
:10233000C043C4F20202C4F20204C4F20203A04287
:1023400088BF13468A0007D440F67D75C0F67D75B8
:102350000D409D6030BC704740F67D7CC0F67D7CB2
:1023600001EA0C00D860F5E708B54FF44053C4F219
:102370000103984218D04FF46051C4F20001884222
:102380001ED04FF47052C4F20002904200D008BD3B
:1023900001214FF40040FEF793FE4FF4004000216E
:1023A000BDE80840FEF78CBE01214FF48050FEF7D7
:1023B00095FE4FF480500021BDE80840FEF78EBE28
:1023C00001214FF48040FEF77BFE4FF48040002156
:1023D000BDE80840FEF774BE838B8A6823F47A6CEC
:1023E0002DE9F0032CF01F073D042C0C02238483FD
:1023F0000384868B9A42B6B265D04FF46053C4F220
:1024000002038C889D68002C0CBF4FF0010C4FF02C
:10241000020C2D0252D44FF46053C4F202034FF465
:102420009055D3F88480D3F88470D3F80490CB8887
:1024300009F03F09C0F27A05B5FBF9F5C8F3881831
:1024400008FB05F5C7F30277B3F5007FB5FBF7F599
:102450003CD04FEA4C17B5FBF7F505EB85056F004F
:10246000B7FBF2F56F1D4CF6CD421FFA87FCCCF698
:10247000CC42A2FB0C75EA085508AF1E1FFA87FC78
:1024800002F00102BCF1FD0F94BF45EA02220222D4
:10249000B1F800C04F888D8946EA0C0141F4006C08
:1024A0004CEA070141EA050C1A431FFA8CF193B27A
:1024B0000C4303848483BDE8F00370479D6825F4D2
:1024C00000079F60A7E78C88CB88E1E72D0AC4E767
:1024D000838B29B923F480610B041A0C8283704723
:1024E00099B241F480638383704700BF8181704754
:1024F00083889BB21AB923EA01028280704719438C
:10250000818070470123090903FA01F1838889B2A8
:102510009BB222B923EA010CA0F804C0704741EA3B
:1025200003028280704700BF038919420CBF00205C
:102530000120704708B54FF4A843C4F20003984245
:1025400018D04FF4B041C4F2000188421ED04FF4BD
:10255000B842C4F20002904200D008BD01214FF4FD
:102560000000FEF7ADFD4FF400000021BDE808407B
:10257000FEF7A6BD01214FF40010FEF7A1FD4FF4B8
:1025800000100021BDE80840FEF79ABD01214FF47C
:102590008000FEF795FD4FF480000021BDE8084063
:1025A000FEF78EBD70B5828884B0044668460D463D
:1025B00022F03F06FEF70AFD02982A684DF6836373
:1025C000C4F21B333604A3FB0031360C890C41EAFC
:1025D0000603A380B4F800C02CF00106330448F2CF
:1025E000A066C0F201061B0CB242238029D853001A
:1025F000B0FBF3F080B201312184032898BF04209E
:10260000A0832388B5F804E029896E89AA891FFA76
:1026100083FC4CF001002080238823F4806C2CF094
:102620000A0003041B0C46EA0E0043EA000C41EAD0
:10263000020E1FFA8CF01FFA8EF12080218104B067
:1026400070BDB5F806C04BF6FF7EF44521D002EB15
:10265000820E0EEB8E06B0FBF6F398B240F480408B
:1026600003051A0D0AB940F001004FF4967344F6C1
:10267000D35603FB01F2C1F2620686FB02236FEA26
:1026800040409E096FEA504C711C1FFA8CF0218467
:10269000B6E702EB4202B0FBF2F6B0B2E0E700BFF1
:1026A000038829B923F001010B041A0C028070473A
:1026B00099B241F001030380704700BF038829B934
:1026C00023F480710B041A0C0280704799B241F414
:1026D00080730380704700BF038829B923F4007119
:1026E0000B041A0C0280704799B241F40073038006
:1026F000704700BF1AB901F0FE010182704741F036
:1027000001010182704700BF038829B923F4806169
:102710000B041A0C0280704799B241F48063038065
:10272000704700BF01827047008AC0B2704700BF87
:10273000B0F814C0038B1FFA8CF242EA034000EA9F
:10274000010C2CF07F428B1A584240EB030070477B
:1027500082B000230A0F0093019301900092009B26
:1027600021F07F4153B10198143001900198036822
:1027700019420CBF0020012002B07047019A1832A4
:10278000090C0192F2E700BFCA4391B281827047FF
:102790004FF46D4340F0BE61CEF2000341F42020BF
:1027A000D8607047C37830B47BB900784FF4614C7F
:1027B000410900F01F02CEF2000C2031012303FA80
:1027C00002F04CF8210030BC70474FF46D45CEF25A
:1027D00000054278EC6885780178E343C3F3022C66
:1027E000CCF10404E3B202FA03F40F2242FA0CF330
:1027F00003EA050CE4B24FF461434CEA0402CEF262
:10280000000301EB030C1201D1B28CF80013027823
:102810004FF4614C5109CEF2000C02F01F0301206D
:1028200000FA03F24CF82120CDE700BF2DE9F04378
:10283000012197B04FF480204FF44068FEF732FC3E
:10284000C4F2020801214FF400100024FEF71CFC22
:102850000125022613A940464FF4407713978DF8BF
:1028600050608DF851608DF852408DF85350FFF74D
:10287000D1F9404608210722FFF792FA40464FF46B
:102880009048C4F2000807220921FFF789FA0422C0
:1028900047F612230FA940460F93ADF846200C27A8
:1028A000ADF84040ADF84240ADF84440ADF8484086
:1028B000FEF7DEF815A88DF854708DF855408DF8A8
:1028C00056408DF8575046F22807FFF76BFF4FF43C
:1028D000A060FFF75DFFC4F2020729464046FEF7FD
:1028E00047F93846FFF736FB4FF0006044F6040323
:1028F0000090C4F200034FF480714FF4003040F6B2
:102900000816C2F200064FF0400901934FF48062AE
:10291000032309910A90694638460C930692039462
:102920000296CDF810900594079408940B940D949A
:102930000E94FFF711FC404649462A46FEF72AF955
:1029400038462946FFF754FC304617B0BDE8F083FF
:1029500046F2280008B5C4F20200FFF753FC064B0C
:102960001A88904206D028BF4032111A8AB21880C5
:10297000D0B208BD002008BD7804002020383928D6
:1029800049D8DFE810F064015601480048004800CB
:1029900048004800480048004800480048004800F7
:1029A000480048004800460136012A011A010A0180
:1029B000FA00EE00DE00D200C600BE00AE009E00AF
:1029C000920082007200480048003A004800480027
:1029D00048004800480048004800480048004800B7
:1029E00048004800480048004800480048004800A7
:1029F0004800480048005E004900403903EE901A44
:102A00009FED9A3AF8EEE32AB7EE002A02EE832A07
:102A1000974880ED022A70477F29FCD1944BD3ED73
:102A2000051A31EEA11AF1EE000AB4EEE01AF1EE49
:102A300010FA83ED051AEEDB4FF07C5CC3F814C08E
:102A400070477F29E7D18A4B93ED040A70EE007A34
:102A5000B1EE007AF4EEC77AF1EE10FAC3ED047A23
:102A6000D9DB4FF07C511961704701EE901A9FED50
:102A7000811AF8EE610A9FED800A60EE817A7C4A45
:102A800087EE807A82ED157A704706EE901AF8EE9E
:102A9000665AB2EE046A25EE865ADFED774A85EE75
:102AA000244A734B83ED144A704703EE901ADFED0E
:102AB000722AB8EE633A6E4983EE222A81ED132A18
:102AC000704701EE901AF8EE610AB2EE041A60EE59
:102AD000817A9FED690A87EE807A654880ED127AE7
:102AE000704700EE901AB8EE600AF1EE007A20EE20
:102AF000277ADFED616A87EE266A5D4A82ED096A10
:102B000070475E4B03EB810C5949DCF8000008620A
:102B1000704705EE901ADFED584AB8EE655A544AF0
:102B200085EE244A82ED074A704703EE901ADFEDE6
:102B3000522AB8EE633A4E4B83EE222A83ED062AE0
:102B4000704706EE901A9FED4C6AF8EE665ADFED7C
:102B50004C4A85EE865A464A35EE244A82ED114AA1
:102B6000704703EE901ADFED442AB8EE633A404B0B
:102B700083EE222A83ED102A704701EE901A9FED12
:102B80003E1AF8EE610A9FED3E0AC0EE817A38499E
:102B900037EE807A81ED0F7A704706EE901A9FED3E
:102BA000366AF8EE665ADFED364A85EE865A3048C8
:102BB00035EE244A80ED0E4A704703EE901A9FEDE1
:102BC0002E3AF8EE632ADFED2E1A82EE832A284A87
:102BD00032EE211A82ED0D1A704700EE901A9FED29
:102BE000260AF8EE607A224B87EE807A83ED0C7A23
:102BF000704706EE901A9FED206AF8EE665ADFEDF8
:102C0000204A85EE865A1A4935EE244A81ED0B4A50
:102C1000704703EE901A9FED183AF8EE632ADFED45
:102C2000181A82EE832A124832EE211A80ED0A1A0F
:102C300070477F297FF4EFAE0D4B5A7B511CC8B211
:102C4000052858737FF4E7AE0020587370477F293A
:102C50007FF4E1AE064B197B481CC2B2052A1A73F9
:102C60007FF4D9AE00221A73704700BF17B7D1396D
:102C7000000A0020CDCCCC3D0000FE423499000873
:102C80006F12833AF8B5C04C2DED028B9FEDBF8AD1
:102C9000DFEDBF8A06460D46002D00F0848094F8D3
:102CA000403094F84110F25C2929FDD801A050F879
:102CB00021F000BFB12E0008A92C0008A92C0008A3
:102CC000A92C0008A92C0008A92C0008A92C000890
:102CD000A92C0008A92C0008A92C0008CF2E000858
:102CE000212E0008A92C0008A92C0008A92C0008F6
:102CF000A92C0008A92C0008A92C0008A92C000860
:102D0000A92C0008932E0008612E0008A92C0008A9
:102D1000A92C0008A92C0008A92C0008A92C00083F
:102D2000A92C0008A92C0008A92C0008012E0008D5
:102D3000CF2D0008A92C0008A92C0008A92C0008F8
:102D4000A92C0008A92C0008A92C0008A92C00080F
:102D5000A92C0008AD2D00085D2D00083F2B84F83C
:102D6000472000F0DE80581C84F8400094F84600AC
:102D7000884B40EAC21106EE901AD3ED001AB8EE65
:102D8000661A71EEA10A31EE487A013D20EE870AFB
:102D90002822C0EE287AEDB284F84120C3ED017AF2
:102DA000002D7FF47CAFBDEC028BF8BD110600F165
:102DB0009D803F2B84F8462000F0BF80581C84F88B
:102DC0004000013D2923EDB284F8413064E73F2BF8
:102DD00084F8452000F0A980581C84F8400094F83D
:102DE00044106D481E23013D84F84130FEF77AFB04
:102DF00094F8451094F84400EDB2FFF7BFFD4BE79F
:102E0000100673D43F2B84F8442000F09E805A1C97
:102E100084F840206B1E1F20DDB284F841003BE7A0
:102E20003F2B84F8432078D0591C84F84010013D92
:102E30000A23EDB284F8413094F84210574F002A2B
:102E400058D05748FEF74EFB94F84320386894F862
:102E50004210FDF7EDFE38605248012202701BE778
:102E60003F2B84F8432054D0581C84F84000013D87
:102E7000142394F84210494F4B4884F84130EDB286
:102E8000FEF730FB386894F84210FDF7E7FE386033
:102E900002E711062AD43F2B84F8422049D001339F
:102EA00084F84030013D1522EDB284F84120F3E66C
:102EB00002F0F002902A4CD01EDC802A5BD03F2B1F
:102EC00023D0581C84F84000013DEDB2E4E6100622
:102ED0000CD43F2B84F8422033D05A1C84F8402075
:102EE000681E0B23C5B284F84130D5E6002284F871
:102EF0004120D1E62C48C3E7B02A33D0E02ADED106
:102F000028223F2B84F84120DBD1002384F8403075
:102F1000DAE7002784F84070A9E7002784F84070BA
:102F200085E7002184F8401020E7002184F8401054
:102F300055E7002184F84010B4E7002184F84010E0
:102F40003FE7002184F84010CAE7002184F84010D0
:102F500060E70A223F2B84F84120B2D1002384F895
:102F60004030B1E71E213F2B84F84110A9D1002346
:102F700084F84030A8E714203F2B84F84100A0D10A
:102F8000002384F840309FE7080900200000004635
:102F900000004047000A00205C9B000894080020C5
:102FA000349B0008580A0020489B000840F2480360
:102FB000C2F200030146186800F008B840F2480366
:102FC000C2F200030146186800F006BB2DE9F04F7D
:102FD00001F10B04162C83B0054627D934F0070401
:102FE00027D4A14225D8284600F090FAB4F5FC7FFA
:102FF00023D2B14E4FEAD40E06EBCE03DF689F42D8
:1030000000F0D5817B68FA68B96823F00303FB18E8
:10301000CA605868916040F001025A60284600F08A
:1030200077FA0837384603B0BDE8F08F1024A14284
:10303000D9D90C232B600027F4E75FEA542E00F067
:103040008880BEF1040F00F250814FEA941E0EF109
:10305000380E4FEACE01984E7118CF68B94205D1AB
:103060000CE0002B7ADAFF68B94207D07A6822F0C8
:103070000302131B0F2BF4DD0EF1FF3E0EF1010EC8
:103080008D4A376902F1080C674500F06E817B6854
:1030900023F00303191B0F2900F354810029C2F800
:1030A00014C0C2F810C067DAB3F5007F80F02B813E
:1030B000DB0802EBC301D2F804808868F9609B103A
:1030C0004FF0010909FA03F343EA0803B8605360BB
:1030D0008F60C76001204FEAAE0200FA02F098420A
:1030E00054D8034206D12EF0030E400003420EF1E5
:1030F000040EFAD006EBCE094F46F046FB689F421D
:1031000007D134E1002A80F25B81DB689F4200F046
:103110002E81596821F003010A1B0F2AF2DD1F4698
:103120001919D86857F808EF8A5044F0010442F0A2
:103130000102CEF80C00C0F808E05C6071613161FA
:10314000C1F80CC0C1F808C04A60284600F0E0F998
:1031500068E74FEAD40E4FEACE017CE7BA18FB6865
:103160005068B96840F001005060CB609960284613
:1031700000F0CEF9083755E7FB1828465A6842F0A8
:1031800001025A6000F0C4F908374BE7B7687B6862
:1031900023F003094C4504D8C4EB09020F2A00F3BD
:1031A0009780DFF824B1454BDBF800201B68013223
:1031B000234400F0518103F580530F3323F47E63E1
:1031C00023F01F0319462846019300F0A3F9B0F13C
:1031D000FF3F8046019B00F04A8107EB09018142D5
:1031E00000F20981DFF8E4A0DAF8002041451A4432
:1031F000CAF8002000F04081DBF80000013000F048
:103200004B81C1EB08015218CAF8002018F00702E0
:1032100000F00481C2F10801C2F58052884402F135
:10322000080B43441B051B0DC3EB0B0B28465946EB
:1032300000F070F9431C00F03B81C8EB00035B44D5
:1032400043F00103DAF80020C6F808805A44B74278
:10325000CAF80020C8F8043015D0B9F10F0F40F2B9
:10326000EA807868A9F10C0323F00703F91800F04D
:10327000010E43EA0E0E05200F2BC7F804E048604C
:10328000886000F20D810E4BB76819688A4288BFCA
:103290001A600C4B19688A4288BF1A607A6822F05B
:1032A0000302944202D8121B0F2A11DC284600F0B8
:1032B0002FF90027B6E600BF7C0400205809002043
:1032C0005409002050090020880800205C090020D3
:1032D0003B1942F0010244F001047C6028465A6028
:1032E000B360083700F014F99CE6BEF1140F76D9EC
:1032F000BEF1540F00F288804FEA143E0EF16E0EBC
:103300004FEACE01A7E65A0A042A6DD9142A00F220
:10331000A58002F15B084FEAC8003018784982683E
:10332000824203D17DE09268904204D0516821F03E
:1033300003018B42F7D3D1687368F960BA60D76034
:103340008F60C7E63B1941F0010044F001047C6046
:10335000536113615860C3F80CC0C3F808C05950DA
:10336000284600F0D5F808375CE65368B2E608F165
:103370000108083718F0030F7FF4C0AE4B461EF06B
:10338000030FA3F108020EF1FF3E00F0AA801B68B4
:103390009342F4D07368400098423FF6F7AE00289D
:1033A0003FF4F4AE184200F0A180C646A2E607F151
:1033B00008037F69BB427FF425AE0EF1020E5FE683
:1033C00059181F464868DB6857F8082F40F001007D
:1033D0004860D3609A60284600F09AF822E60EF121
:1033E0005B0E4FEACE0136E64FEA931808F1380833
:1033F0004FEAC80091E7B7423FF4F4AE404B9F68F4
:103400007A6822F003024CE7BEF5AA7F19D84FEA8A
:10341000D43E0EF1770E4FEACE011CE64FF4805BEE
:10342000FFE64B684FEAA808012000FA08F00343C2
:103430004B60114681E70123C8F80430474600225B
:103440002FE740F254539E4521D84FEA944E0EF197
:103450007C0E4FEACE01FEE51033B3E6542A2BD89A
:103460004FEA133808F16E084FEAC80055E7B7680D
:103470007A6822F0030214E70805000D00287FF4A3
:10348000BBAEB1684B4443F001034B60FBE64FF425
:103490007C714FF07E0EDEE51A4AC2F80080B5E678
:1034A00007F10801284600F097F8174B1A68EAE67A
:1034B00001234FF0000BC5E6B2F5AA7F06D84FEA0C
:1034C000D33808F177084FEAC80026E740F2545194
:1034D0008A420FD84FEA934808F17C084FEAC800A7
:1034E0001BE7736823EA0003736054E7400008F1A8
:1034F000040857E74FF47C704FF07E080DE700BFDB
:103500007C040020880800205C090020704700BF70
:10351000704700BF38B5074C0023054608462360B6
:10352000FEF708FD431C00D038BD2368002BFBD0FC
:103530002B6038BD680F0020F8B5244D04460F46B7
:10354000FFF7E4FFAB685E6826F0030606F57E63CE
:103550000F33DF1B3F0B013F3F03B7F5805F204672
:103560001CDB0021FFF7D6FFAB689B19984219D0EE
:103570002046FFF7CDFF0020F8BD00212046FFF7D1
:10358000C9FFAB68C21A0F2A07DD11490968401A42
:10359000104942F0010208605A602046FFF7B8FF68
:1035A0000020F8BD79422046FFF7B4FF0130E4D097
:1035B000084BAA681968F61B46F00106CF1B204687
:1035C00056601F60FFF7A4FF0120F8BD7C040020B7
:1035D000880800205C0900202DE9F0410D460446D2
:1035E000002958D0FFF792FF55F8040C5A4EA5F168
:1035F000080120F00103CA18D6F808C0576894459E
:1036000027F0030765D010F00100576032D000208A
:10361000D5196D6815F0010F06D1DB1995680028E2
:103620004BD0D268EA60956043F001024A60CB500B
:10363000D8B9B3F5007F30D35A0A042A64D89D095B
:103640003835E80086194448B268B24203D161E0D7
:103650009268964204D0506820F003008342F7D36A
:10366000D368CB608A60D16099602046BDE8F041A4
:10367000FFF74EBF55F808CCCCEB010106F1080866
:103680008D68454563443DD0D1F80CC0C5F80CC0E9
:10369000CCF80850BCE7BDE8F081DB0806EBC302BC
:1036A00075689068CA609B10012707FA03F32B43E3
:1036B000886073609160C160D7E7284FBD42B0D188
:1036C00043F0010271613161CD608D604A60CB5081
:1036D000CBE7C2073B4407D455F8082C891A9B183E
:1036E0008868CA68C26090601D4AB160126843F081
:1036F000010093424860B8D31A4B20461968FFF77F
:103700001BFFB2E7012083E7142A0CD802F15B0506
:10371000E80097E74368AD10012606FA05F52B434C
:10372000436013469DE7542A03D81D0B6E35E8000D
:1037300088E7B2F5AA7F03D8DD0B7735E80081E78B
:1037400040F25450824203D89D0C7C35E80079E762
:103750004FF47C707E2575E77C04002084040020F3
:103760008408002058090020CDCC82415C8F8A411A
:10377000CDCC92419A999B41CDCCA441D7A3AE41E7
:10378000C3F5B8410000C44114AECF410000DC4194
:10379000B81EE941C3F5F641CDCC02429A990A42DE
:1037A0000AD712425C8F1B42CDCC24429A992E42FA
:1037B0000000394200004442D7A34F4200005C425F
:1037C0007B146942C3F57642ECD182429A998A42CF
:1037D0000AD792425C8F9B42ECD1A442B89EAE4283
:1037E0000000B9420000C442F6A8CF420000DC420B
:1037F0007B14E942A4F0F6425CCF02430A970A43E5
:103800007BD412435C8F1B435CCF2443299C2E4303
:10381000000039430000444366A64F4300005C4368
:103820007B146943A4F07643A4D082430A978A4369
:103830007BD49243A4909B43A4D0A443719DAE43F8
:10384000B8FEB8430000C44366A6CF430000DC4383
:103850007B14E943A4F0F64300D00244AE970A4437
:103860001FD5124400901B44A4D02444719D2E44C3
:103870005CFF38445CFF43440AA74F4400005C44AB
:103880001F15694448F1764400D082445C978A440D
:103890001FD5924452909B4452D0A4441F9DAE44E5
:1038A0005CFFB8445CFFC3440AA7CF440000DC447B
:1038B0001F15E944F6F0F64400D002455C970A452E
:1038C0001FD5124552901B4552D02445489D2E4588
:1038D0005CFF38455CFF43450AA74F4500005C4547
:1038E000F61469451FF1764514D082455C978A45E8
:1038F0001FD592453D909B450A0A0000496E6974A8
:10390000207465726D696E61746564200A00000040
:10391000737464696F2E633A20696E6372656173B4
:1039200065204D41585F535452494E475F53495AA1
:10393000450A0D00000000000E32C93B1C08493C3E
:1039400091D0963C1C08C93CA73FFB3C15C6163DD0
:10395000DAE12F3DA0FD483D6519623DAE2A7B3D71
:10396000FC1D8A3DA0A6963D452FA33DE9B7AF3D7E
:103970004F3BBC3DB6BEC83DDE3CD53D06BBE13D40
:103980002E39EE3D18B2FA3D8195033E57CF093EE0
:103990002D09103E6440163E9A771C3E32AC223E02
:1039A0002BDE283E23102F3E7D3F353ED66E3B3E1C
:1039B000919B413EACC5473E29ED4D3EA514543E7A
:1039C00082395A3EC05B603E5F7B663EFE9A6C3E2B
:1039D0005FB5723EC0CF783E82E77E3E527E823E29
:1039E0004486853E378E883ED9948B3E2C9A8E3EF7
:1039F000309E913E959F943EF9A0973E0EA19A3E2F
:103A0000849E9D3EAA9AA03E8195A33E088FA63E25
:103A10004087A93ED97CAC3E2271AF3E1B64B23ECA
:103A20007654B53ED044B83E3C31BB3EA81DBE3EA8
:103A30007407C13EA2EEC33ED0D5C63E0FB9C93E03
:103A4000FE9ACC3E9E7BCF3E9F59D23E5036D53E0D
:103A50006210D83E25E9DA3EF9BDDD3ECD92E03E6A
:103A6000B263E33E4833E63E3F00E93EE6CBEB3E41
:103A7000EE94EE3E575BF13E211FF43E4CE0F63EE5
:103A800027A0F93E645DFC3E0118FF3EFFE7003FC2
:103A9000AF42023F0F9C033FC7F4043F884B063FF1
:103AA000F9A0073FC3F5083F95480A3F179A0B3F17
:103AB000F2EA0C3FD6390E3F6A870F3FAED3103F74
:103AC000A31E123F4968133FF7AF143FFDF6153FA1
:103AD0000C3C173FCC7F183F3BC2193FB4021B3F41
:103AE000DD411C3FB77F1D3F41BC1E3FD3F61F3F4A
:103AF0001630213F6267223F5E9D233F0BD2243F59
:103B0000C004263F2636273F3C66283F5B94293F6A
:103B100083C02A3F5BEB2B3F3C142D3FCD3B2E3F18
:103B200067612F3FB285303F05A8313F08C9323F5A
:103B30006DE7333F2905353F4720363F153A373F7C
:103B4000EC51383F7368393F5B7C3A3FF38E3B3F23
:103B50003CA03C3FE6AE3D3F41BC3E3FA4C73F3F9B
:103B60000FD1403F84D8413F01DE423F2EE2433F28
:103B7000BDE3443FFCE3453F43E2463F94DE473F1D
:103B8000EDD8483F4ED1493FB9C74A3F2CBC4B3FC7
:103B9000A7AE4C3F2C9F4D3FB98D4E3F4E7A4F3FC5
:103BA000ED64503FEC4C513F9C33523F5518533F0E
:103BB00016FB533F38DB543F63B9553F9695563F4C
:103BC000D26F573F1748583F641E593FBBF2593FC9
:103BD00072C45A3F31945B3FFA615C3F232D5D3FD5
:103BE000FDF65D3F38BE5E3FD4825F3F2046603FBA
:103BF000CD06613F82C5613F4182623F603C633FC9
:103C000088F4633F11AA643F4A5E653F3D0F663FFB
:103C1000E0BE663FE36B673FF016683F5DBF683FFD
:103C2000D465693FAB096A3F8AAB6A3FCB4A6B3FB9
:103C300014E86B3F66836C3F191C6D3FD5B26D3F36
:103C4000F1466E3F6FD86E3FF5676F3F84F56F3F6B
:103C50007380703FC408713F1D8F713F7F13723FA7
:103C60004295723F6614733F9291733F200C743FEC
:103C70000E84743F05FA743F5D6D753FBEDE753F7F
:103C80007F4D763F49BA763FCD23773F008C773F13
:103C9000EDF0773FE353783F39B4783F9912793F9D
:103CA000596E793F7AC7793FA31E7A3F2E737A3FC8
:103CB00019C57A3F0E157B3FBB617B3F19AD7B3F3A
:103CC00030F57B3F4F3B7C3FD07E7C3FB1BF7C3F9C
:103CD0009BFE7C3FE73A7D3F92747D3F9FAB7D3FEB
:103CE000B5E07D3F2B137E3F03437E3FE3707E3F75
:103CF0007C9B7E3F1EC47E3FC8EA7E3F2C0E7F3FEA
:103D0000982F7F3F664E7F3F946A7F3FCB847F3FF3
:103D1000639C7F3F5BB17F3FB5C37F3F6FD37F3FE6
:103D200033E17F3F57EC7F3FDCF47F3FC2FA7F3FB8
:103D3000B0FE7F3F0000803FB0FE7F3FC2FA7F3F72
:103D4000DCF47F3F57EC7F3F33E17F3F6FD37F3F12
:103D5000B5C37F3F5BB17F3F639C7F3FCB847F3F99
:103D6000946A7F3F664E7F3F982F7F3F2C0E7F3FA8
:103D7000C8EA7E3F1EC47E3F7C9B7E3FE3707E3F51
:103D800003437E3F2B137E3FB5E07D3F9FAB7D3FDE
:103D900092747D3FE73A7D3F9BFE7C3FB1BF7C3F05
:103DA000D07E7C3F4F3B7C3F30F57B3F19AD7B3F66
:103DB000BB617B3F0E157B3F19C57A3F2E737A3F5F
:103DC000A31E7A3F7AC7793F596E793F9912793F9E
:103DD00039B4783FE353783FEDF0773F008C773F7D
:103DE000CD23773F49BA763F7F4D763FBEDE753FA4
:103DF0005D6D753F05FA743F0E84743F200C743F6F
:103E00009291733F6614733F4295723F7F13723FE6
:103E10001D8F713FC408713F7380703F84F56F3F01
:103E2000F5676F3F6FD86E3FF1466E3FD5B26D3F7D
:103E3000191C6D3F66836C3F14E86B3FCB4A6B3FA8
:103E40008AAB6A3FAB096A3FD465693F5DBF683F93
:103E5000F016683FE36B673FE0BE663F3D0F663F8D
:103E60004A5E653F11AA643F88F4633F603C633F4C
:103E70004182623F82C5613FCD06613F2046603F7F
:103E8000D4825F3F38BE5E3FFDF65D3F232D5D3F30
:103E9000FA615C3F31945B3F72C45A3FBBF2593FB9
:103EA000641E593F1748583FD26F573F9695563F6B
:103EB00063B9553F38DB543F16FB533F5518533F0A
:103EC0009C33523FEC4C513FED64503F4E7A4F3F94
:103ED000B98D4E3F2C9F4D3FA7AE4C3F2CBC4B3F66
:103EE000B9C74A3F4ED1493FEDD8483F94DE473FDE
:103EF00043E2463FFCE3453FBDE3443F2EE2433F00
:103F000001DE423F84D8413F0FD1403FA4C73F3F2D
:103F100041BC3E3FE6AE3D3F3CA03C3FF38E3B3FC5
:103F20005B7C3A3F7368393FEC51383F153A373F75
:103F30004720363F2905353F6DE7333F08C9323FFB
:103F400005A8313FB285303F67612F3FCD3B2E3F03
:103F50003C142D3F5BEB2B3F83C02A3F5B94293FF2
:103F60003C66283F2636273FC004263F0BD2243F1D
:103F70005E9D233F6267223F1630213FD3F61F3FED
:103F800041BC1E3FB77F1D3FDD411C3FB4021B3FBC
:103F90003BC2193FCC7F183F0C3C173FFDF6153F45
:103FA000F7AF143F4968133FA31E123FAED3103F33
:103FB0006A870F3FD6390E3FF2EA0C3F179A0B3F44
:103FC00095480A3FC3F5083FF9A0073F884B063FD5
:103FD000C7F4043F0F9C033FAF42023FFFE7003F9F
:103FE0000118FF3E645DFC3E27A0F93E4CE0F63E22
:103FF000211FF43E575BF13EEE94EE3EE6CBEB3EE6
:104000003F00E93E4833E63EB263E33ECD92E03EF8
:10401000F9BDDD3E25E9DA3E6210D83E5036D53E88
:104020009F59D23E9E7BCF3EFE9ACC3E0FB9C93EF1
:10403000D0D5C63EA2EEC33E7407C13EA81DBE3E0B
:104040003C31BB3ED044B83E7654B53E1B64B23ED4
:104050002271AF3ED97CAC3E4087A93E088FA63E78
:104060008195A33EAA9AA03E849E9D3E0EA19A3EB3
:10407000F9A0973E959F943E309E913E2C9A8E3E9D
:10408000D9948B3E378E883E4486853E527E823E52
:1040900082E77E3EC0CF783E5FB5723EFE9A6C3EB0
:1040A0005F7B663EC05B603E82395A3EA514543E3B
:1040B00029ED4D3EACC5473E919B413ED66E3B3E01
:1040C0007D3F353E23102F3E2BDE283E32AC223E74
:1040D0009A771C3E6440163E2D09103E57CF093E8C
:1040E0008195033E18B2FA3D2E39EE3D06BBE13D07
:1040F000DE3CD53DB6BEC83D4F3BBC3DE9B7AF3D0C
:10410000452FA33DA0A6963DFC1D8A3DAE2A7B3DD2
:104110006519623DA0FD483DDAE12F3D15C6163D0B
:10412000A73FFB3C1C08C93C91D0963C1C08493C6D
:104130000E32C93B000000000E32C9BB1C0849BC4E
:1041400091D096BC1C08C9BCA73FFBBC15C616BDC8
:10415000DAE12FBDA0FD48BD651962BDAE2A7BBD69
:10416000FC1D8ABDA0A696BD452FA3BDE9B7AFBD76
:104170004F3BBCBDB6BEC8BDDE3CD5BD06BBE1BD38
:104180002E39EEBD18B2FABD819503BE57CF09BED8
:104190002D0910BE644016BE9A771CBE32AC22BEFA
:1041A0002BDE28BE23102FBE7D3F35BED66E3BBE14
:1041B000919B41BEACC547BE29ED4DBEA51454BE72
:1041C00082395ABEC05B60BE5F7B66BEFE9A6CBE23
:1041D0005FB572BEC0CF78BE82E77EBE527E82BE21
:1041E000448685BE378E88BED9948BBE2C9A8EBEEF
:1041F000309E91BE959F94BEF9A097BE0EA19ABE27
:10420000849E9DBEAA9AA0BE8195A3BE088FA6BE1D
:104210004087A9BED97CACBE2271AFBE1B64B2BEC2
:104220007654B5BED044B8BE3C31BBBEA81DBEBEA0
:104230007407C1BEA2EEC3BED0D5C6BE0FB9C9BEFB
:10424000FE9ACCBE9E7BCFBE9F59D2BE5036D5BE05
:104250006210D8BE25E9DABEF9BDDDBECD92E0BE62
:10426000B263E3BE4833E6BE3F00E9BEE6CBEBBE39
:10427000EE94EEBE575BF1BE211FF4BE4CE0F6BEDD
:1042800027A0F9BE645DFCBE0118FFBEFFE700BFBA
:10429000AF4202BF0F9C03BFC7F404BF884B06BFE9
:1042A000F9A007BFC3F508BF95480ABF179A0BBF0F
:1042B000F2EA0CBFD6390EBF6A870FBFAED310BF6C
:1042C000A31E12BF496813BFF7AF14BFFDF615BF99
:1042D0000C3C17BFCC7F18BF3BC219BFB4021BBF39
:1042E000DD411CBFB77F1DBF41BC1EBFD3F61FBF42
:1042F000163021BF626722BF5E9D23BF0BD224BF51
:10430000C00426BF263627BF3C6628BF5B9429BF62
:1043100083C02ABF5BEB2BBF3C142DBFCD3B2EBF10
:1043200067612FBFB28530BF05A831BF08C932BF52
:104330006DE733BF290535BF472036BF153A37BF74
:10434000EC5138BF736839BF5B7C3ABFF38E3BBF1B
:104350003CA03CBFE6AE3DBF41BC3EBFA4C73FBF93
:104360000FD140BF84D841BF01DE42BF2EE243BF20
:10437000BDE344BFFCE345BF43E246BF94DE47BF15
:10438000EDD848BF4ED149BFB9C74ABF2CBC4BBFBF
:10439000A7AE4CBF2C9F4DBFB98D4EBF4E7A4FBFBD
:1043A000ED6450BFEC4C51BF9C3352BF551853BF06
:1043B00016FB53BF38DB54BF63B955BF969556BF44
:1043C000D26F57BF174858BF641E59BFBBF259BFC1
:1043D00072C45ABF31945BBFFA615CBF232D5DBFCD
:1043E000FDF65DBF38BE5EBFD4825FBF204660BFB2
:1043F000CD0661BF82C561BF418262BF603C63BFC1
:1044000088F463BF11AA64BF4A5E65BF3D0F66BFF3
:10441000E0BE66BFE36B67BFF01668BF5DBF68BFF5
:10442000D46569BFAB096ABF8AAB6ABFCB4A6BBFB1
:1044300014E86BBF66836CBF191C6DBFD5B26DBF2E
:10444000F1466EBF6FD86EBFF5676FBF84F56FBF63
:10445000738070BFC40871BF1D8F71BF7F1372BF9F
:10446000429572BF661473BF929173BF200C74BFE4
:104470000E8474BF05FA74BF5D6D75BFBEDE75BF77
:104480007F4D76BF49BA76BFCD2377BF008C77BF0B
:10449000EDF077BFE35378BF39B478BF991279BF95
:1044A000596E79BF7AC779BFA31E7ABF2E737ABFC0
:1044B00019C57ABF0E157BBFBB617BBF19AD7BBF32
:1044C00030F57BBF4F3B7CBFD07E7CBFB1BF7CBF94
:1044D0009BFE7CBFE73A7DBF92747DBF9FAB7DBFE3
:1044E000B5E07DBF2B137EBF03437EBFE3707EBF6D
:1044F0007C9B7EBF1EC47EBFC8EA7EBF2C0E7FBFE2
:10450000982F7FBF664E7FBF946A7FBFCB847FBFEB
:10451000639C7FBF5BB17FBFB5C37FBF6FD37FBFDE
:1045200033E17FBF57EC7FBFDCF47FBFC2FA7FBFB0
:10453000B0FE7FBF000080BFB0FE7FBFC2FA7FBF6A
:10454000DCF47FBF57EC7FBF33E17FBF6FD37FBF0A
:10455000B5C37FBF5BB17FBF639C7FBFCB847FBF91
:10456000946A7FBF664E7FBF982F7FBF2C0E7FBFA0
:10457000C8EA7EBF1EC47EBF7C9B7EBFE3707EBF49
:1045800003437EBF2B137EBFB5E07DBF9FAB7DBFD6
:1045900092747DBFE73A7DBF9BFE7CBFB1BF7CBFFD
:1045A000D07E7CBF4F3B7CBF30F57BBF19AD7BBF5E
:1045B000BB617BBF0E157BBF19C57ABF2E737ABF57
:1045C000A31E7ABF7AC779BF596E79BF991279BF96
:1045D00039B478BFE35378BFEDF077BF008C77BF75
:1045E000CD2377BF49BA76BF7F4D76BFBEDE75BF9C
:1045F0005D6D75BF05FA74BF0E8474BF200C74BF67
:10460000929173BF661473BF429572BF7F1372BFDE
:104610001D8F71BFC40871BF738070BF84F56FBFF9
:10462000F5676FBF6FD86EBFF1466EBFD5B26DBF75
:10463000191C6DBF66836CBF14E86BBFCB4A6BBFA0
:104640008AAB6ABFAB096ABFD46569BF5DBF68BF8B
:10465000F01668BFE36B67BFE0BE66BF3D0F66BF85
:104660004A5E65BF11AA64BF88F463BF603C63BF44
:10467000418262BF82C561BFCD0661BF204660BF77
:10468000D4825FBF38BE5EBFFDF65DBF232D5DBF28
:10469000FA615CBF31945BBF72C45ABFBBF259BFB1
:1046A000641E59BF174858BFD26F57BF969556BF63
:1046B00063B955BF38DB54BF16FB53BF551853BF02
:1046C0009C3352BFEC4C51BFED6450BF4E7A4FBF8C
:1046D000B98D4EBF2C9F4DBFA7AE4CBF2CBC4BBF5E
:1046E000B9C74ABF4ED149BFEDD848BF94DE47BFD6
:1046F00043E246BFFCE345BFBDE344BF2EE243BFF8
:1047000001DE42BF84D841BF0FD140BFA4C73FBF25
:1047100041BC3EBFE6AE3DBF3CA03CBFF38E3BBFBD
:104720005B7C3ABF736839BFEC5138BF153A37BF6D
:10473000472036BF290535BF6DE733BF08C932BFF3
:1047400005A831BFB28530BF67612FBFCD3B2EBFFB
:104750003C142DBF5BEB2BBF83C02ABF5B9429BFEA
:104760003C6628BF263627BFC00426BF0BD224BF15
:104770005E9D23BF626722BF163021BFD3F61FBFE5
:1047800041BC1EBFB77F1DBFDD411CBFB4021BBFB4
:104790003BC219BFCC7F18BF0C3C17BFFDF615BF3D
:1047A000F7AF14BF496813BFA31E12BFAED310BF2B
:1047B0006A870FBFD6390EBFF2EA0CBF179A0BBF3C
:1047C00095480ABFC3F508BFF9A007BF884B06BFCD
:1047D000C7F404BF0F9C03BFAF4202BFFFE700BF97
:1047E0000118FFBE645DFCBE27A0F9BE4CE0F6BE1A
:1047F000211FF4BE575BF1BEEE94EEBEE6CBEBBEDE
:104800003F00E9BE4833E6BEB263E3BECD92E0BEF0
:10481000F9BDDDBE25E9DABE6210D8BE5036D5BE80
:104820009F59D2BE9E7BCFBEFE9ACCBE0FB9C9BEE9
:10483000D0D5C6BEA2EEC3BE7407C1BEA81DBEBE03
:104840003C31BBBED044B8BE7654B5BE1B64B2BECC
:104850002271AFBED97CACBE4087A9BE088FA6BE70
:104860008195A3BEAA9AA0BE849E9DBE0EA19ABEAB
:10487000F9A097BE959F94BE309E91BE2C9A8EBE95
:10488000D9948BBE378E88BE448685BE527E82BE4A
:1048900082E77EBEC0CF78BE5FB572BEFE9A6CBEA8
:1048A0005F7B66BEC05B60BE82395ABEA51454BE33
:1048B00029ED4DBEACC547BE919B41BED66E3BBEF9
:1048C0007D3F35BE23102FBE2BDE28BE32AC22BE6C
:1048D0009A771CBE644016BE2D0910BE57CF09BE84
:1048E000819503BE18B2FABD2E39EEBD06BBE1BDFF
:1048F000DE3CD5BDB6BEC8BD4F3BBCBDE9B7AFBD04
:10490000452FA3BDA0A696BDFC1D8ABDAE2A7BBDCA
:10491000651962BDA0FD48BDDAE12FBD15C616BD03
:10492000A73FFBBC1C08C9BC91D096BC1C0849BC65
:104930000E32C9BB00000000789CA23D0C07223E4D
:104940000395713E4AB59F3E187DC53EB1E1E93EF3
:10495000BD52063FB4C8163F2E39263FDA8F343F8A
:10496000B6B9413F00A94D3F3B53583FD9B1613FD4
:1049700094C1693F0A85703F2A00763F213C7A3F07
:1049800063457D3F022B7F3F0000803FAED87F3FD5
:10499000FBCB7E3FD0F27C3FB2687A3FD847773F6F
:1049A00071AC733F03B26F3F0C766B3F1B12673FD6
:1049B00066A0623F7E3A5E3FA9F6593F3AE9553F0D
:1049C0008126523FE8BC4E3FDCBA4B3FD82A493FD4
:1049D000BA14473F677E453FD769443F62D6433F9D
:1049E0006AC1433FAF25443FFCFB443F7E3A463F0C
:1049F000B6D6473F8BC3493FE0F34B3FFB574E3F93
:104A000019E2503F2783533FC32A563F29CB583FD3
:104A100097565B3F48BF5D3F72F95F3F98FA613F31
:104A20008CB9633FC22F653FAC56663F5A2A673F39
:104A30007EA9673F6FD3673F26AA673FE830673F8D
:104A40004C6C663FE162653FDA1B643F66A0623FE3
:104A500009F9603FE8305F3F7E525D3F49685B3F48
:104A60006B7D593FBB9B573F0CCD553F821C543F3C
:104A7000AC90523F0E32513F3507503F62154F3FC9
:104A8000D95F4E3FE2E94D3F24B44D3FA1BE4D3FBB
:104A900007084E3F118D4E3FCF494F3F0439503FDD
:104AA000CA54513FEA95523F88F4533F6E69553FCF
:104AB00070EB563FB072583FA9F6593F2F6E5B3FDF
:104AC0000BD25C3FB01B5E3F42435F3F8143603F80
:104AD000D717613F56BC613FB62D623F516B623FB5
:104AE0007E74623F3D49623F85EB613FF65D613F09
:104AF00027A5603F05C55F3F76C35E3FB9A55D3F13
:104B000004735C3FE4315B3F8EE9593F90A0583F0E
:104B1000705F573F6B2B563F5F0C553FE206543F8B
:104B2000DA20533F355E523F33C4513F7A53513FF1
:104B3000F90F513F09F9503FF90F513F2A52513FA8
:104B4000F5BE513F1153523F910A533F87E1533F06
:104B50005BD3543F7FD9553F0FEE563F740C583FFF
:104B6000CF2C593FE4495A3F255D5B3F52615C3F82
:104B7000DF4F5D3FDD245E3FB6DB5E3F22715F3F6E
:104B800033E15F3F992A603F064C603F7845603FC4
:104B9000F016603F65C25F3F28495F3F7DAE5E3FD4
:104BA00055F65D3F46255D3F963E5C3FD4485B3FF2
:104BB00095485A3F6744593F3A40583F4243573F10
:104BC000BD52563F9B72553FC1A8543F1EF9533FFB
:104BD0005166533F49F4523FA4A5523F637A523F76
:104BE0007E74523FA392523FD4D4523FC139533FB7
:104BF0007BBD533FB35E543FD218553F43E7553F0B
:104C000015C6563FB4B0573F38A1583F0C93593F93
:104C100049805A3F5A645B3FA83A5C3FF4FD5C3FD1
:104C200050AA5D3F753C5E3F1CB15E3F4F065F3F43
:104C3000153A5F3F1F4B5F3F153A5F3FF7065F3FF7
:104C400014B35E3F64405E3F85B15D3FC0095D3F88
:104C5000594C5C3F917E5B3F55A45A3F94C1593FEC
:104C6000DBDC583F1AFA573FE71D573F274E563FA8
:104C70007A8D553FC6E1543F514E543F13D5533FB3
:104C8000FB79533FB03D533F2922533F6727533FA2
:104C9000124E533F3194533F77F8533FEA78543FD5
:104CA000EC12553FE8C1553F3C83563F5452573FA5
:104CB000992A583FCD06593FA8E3593F9DBA5A3F1C
:104CC00066885B3F6B485C3F6FF55C3F7A8D5D3F6C
:104CD0004E0B5E3F446E5E3F14B35E3F6FD85E3F47
:104CE000ADDD5E3FCEC25E3F7B885E3F01305E3F02
:104CF0005ABB5D3F232D5D3FFD875C3F7DD05B3F11
:104D000042095B3F8B375A3FEE5F593F5986583F08
:104D1000B4B0573F43E2563F4720563FAD6E553F34
:104D20000BD2543F594C543F87E1533F8A93533F32
:104D3000B263533FF853533FB263533F8A93533F99
:104D400087E1533F594C543F0BD2543FAD6E553F12
:104D50004720563F43E2563FB4B0573F5986583F2D
:104D6000EE5F593F8B375A3F42095B3F7DD05B3F37
:104D7000FD875C3F232D5D3F5ABB5D3F01305E3FA9
:104D80007B885E3FCEC25E3FADDD5E3F6FD85E3F4B
:104D900014B35E3F446E5E3F4E0B5E3F7A8D5D3FC7
:104DA0006FF55C3F6B485C3F66885B3F9DBA5A3F3E
:104DB000A8E3593FCD06593F992A583F5452573FCF
:104DC0003C83563FE8C1553FEC12553FEA78543FCB
:104DD00077F8533F3194533F124E533F6727533F69
:104DE0002922533FB03D533FFB79533F13D5533FE7
:104DF000514E543FC6E1543F7A8D553F274E563FA2
:104E0000E71D573F1AFA573FDBDC583F94C1593F23
:104E100055A45A3F917E5B3F594C5C3FC0095D3FB2
:104E200085B15D3F64405E3F14B35E3FF7065F3F70
:104E3000153A5F3F1F4B5F3F153A5F3F4F065F3F9D
:104E40001CB15E3F753C5E3F50AA5D3FF4FD5C3F88
:104E5000A83A5C3F5A645B3F49805A3F0C93593FE4
:104E600038A1583FB4B0573F15C6563F43E7553FAA
:104E7000D218553FB35E543F7BBD533FC139533FBA
:104E8000D4D4523FA392523F7E74523F637A523F32
:104E9000A4A5523F49F4523F5166533F1EF9533F78
:104EA000C1A8543F9B72553FBD52563F4243573FA6
:104EB0003A40583F6744593F95485A3FD4485B3F72
:104EC000963E5C3F46255D3F55F65D3F7DAE5E3FBD
:104ED00028495F3F65C25F3FF016603F7845603FFD
:104EE000064C603F992A603F33E15F3F22715F3F8C
:104EF000B6DB5E3FDD245E3FDF4F5D3F52615C3FCE
:104F0000255D5B3FE4495A3FCF2C593F740C583F15
:104F10000FEE563F7FD9553F5BD3543F87E1533F58
:104F2000910A533F1153523FF5BE513F2A52513F10
:104F3000F90F513F09F9503FF90F513F7A53513F53
:104F400033C4513F355E523FDA20533FE206543FAF
:104F50005F0C553F6B2B563F705F573F90A0583FFB
:104F60008EE9593FE4315B3F04735C3FB9A55D3F77
:104F700076C35E3F05C55F3F27A5603FF65D613F95
:104F800085EB613F3D49623F7E74623F516B623FFA
:104F9000B62D623F56BC613FD717613F8143603FEA
:104FA00042435F3FB01B5E3F0BD25C3F2F6E5B3FC7
:104FB000A9F6593FB072583F70EB563F6E69553FA6
:104FC00088F4533FEA95523FCA54513F0439503F49
:104FD000CF494F3F118D4E3F07084E3FA1BE4D3F79
:104FE00024B44D3FE2E94D3FD95F4E3F62154F3F3C
:104FF0003507503F0E32513FAC90523F821C543F18
:105000000CCD553FBB9B573F6B7D593F49685B3F7C
:105010007E525D3FE8305F3F09F9603F66A0623F26
:10502000DA1B643FE162653F4C6C663FE830673FE6
:1050300026AA673F6FD3673F7EA9673F5A2A673F1B
:10504000AC56663FC22F653F8CB9633F98FA613F0B
:1050500072F95F3F48BF5D3F97565B3F29CB583F92
:10506000C32A563F2783533F19E2503FFB574E3F19
:10507000E0F34B3F8BC3493FB6D6473F7E3A463FAE
:10508000FCFB443FAF25443F6AC1433F62D6433FE8
:10509000D769443F677E453FBA14473FD82A493F06
:1050A000DCBA4B3FE8BC4E3F8126523F3AE9553FC0
:1050B000A9F6593F7E3A5E3F66A0623F1B12673FEA
:1050C0000C766B3F03B26F3F71AC733FD847773FAD
:1050D000B2687A3FD0F27C3FFBCB7E3FAED87F3FB9
:1050E0000000803F022B7F3F63457D3F213C7A3F9C
:1050F0002A00763F0A85703F94C1693FD9B1613F6C
:105100003B53583F00A94D3FB6B9413FDA8F343F7A
:105110002E39263FB4C8163FBD52063FB1E1E93EE5
:10512000187DC53E4AB59F3E0395713E0C07223E51
:10513000789CA23D00000000789CA2BD0C0722BE16
:10514000039571BE4AB59FBE187DC5BEB1E1E9BEEB
:10515000BD5206BFB4C816BF2E3926BFDA8F34BF82
:10516000B6B941BF00A94DBF3B5358BFD9B161BFCC
:1051700094C169BF0A8570BF2A0076BF213C7ABFFF
:1051800063457DBF022B7FBF000080BFAED87FBFCD
:10519000FBCB7EBFD0F27CBFB2687ABFD84777BF67
:1051A00071AC73BF03B26FBF0C766BBF1B1267BFCE
:1051B00066A062BF7E3A5EBFA9F659BF3AE955BF05
:1051C000812652BFE8BC4EBFDCBA4BBFD82A49BFCC
:1051D000BA1447BF677E45BFD76944BF62D643BF95
:1051E0006AC143BFAF2544BFFCFB44BF7E3A46BF04
:1051F000B6D647BF8BC349BFE0F34BBFFB574EBF8B
:1052000019E250BF278353BFC32A56BF29CB58BFCB
:1052100097565BBF48BF5DBF72F95FBF98FA61BF29
:105220008CB963BFC22F65BFAC5666BF5A2A67BF31
:105230007EA967BF6FD367BF26AA67BFE83067BF85
:105240004C6C66BFE16265BFDA1B64BF66A062BFDB
:1052500009F960BFE8305FBF7E525DBF49685BBF40
:105260006B7D59BFBB9B57BF0CCD55BF821C54BF34
:10527000AC9052BF0E3251BF350750BF62154FBFC1
:10528000D95F4EBFE2E94DBF24B44DBFA1BE4DBFB3
:1052900007084EBF118D4EBFCF494FBF043950BFD5
:1052A000CA5451BFEA9552BF88F453BF6E6955BFC7
:1052B00070EB56BFB07258BFA9F659BF2F6E5BBFD7
:1052C0000BD25CBFB01B5EBF42435FBF814360BF78
:1052D000D71761BF56BC61BFB62D62BF516B62BFAD
:1052E0007E7462BF3D4962BF85EB61BFF65D61BF01
:1052F00027A560BF05C55FBF76C35EBFB9A55DBF0B
:1053000004735CBFE4315BBF8EE959BF90A058BF06
:10531000705F57BF6B2B56BF5F0C55BFE20654BF83
:10532000DA2053BF355E52BF33C451BF7A5351BFE9
:10533000F90F51BF09F950BFF90F51BF2A5251BFA0
:10534000F5BE51BF115352BF910A53BF87E153BFFE
:105350005BD354BF7FD955BF0FEE56BF740C58BFF7
:10536000CF2C59BFE4495ABF255D5BBF52615CBF7A
:10537000DF4F5DBFDD245EBFB6DB5EBF22715FBF66
:1053800033E15FBF992A60BF064C60BF784560BFBC
:10539000F01660BF65C25FBF28495FBF7DAE5EBFCC
:1053A00055F65DBF46255DBF963E5CBFD4485BBFEA
:1053B00095485ABF674459BF3A4058BF424357BF08
:1053C000BD5256BF9B7255BFC1A854BF1EF953BFF3
:1053D000516653BF49F452BFA4A552BF637A52BF6E
:1053E0007E7452BFA39252BFD4D452BFC13953BFAF
:1053F0007BBD53BFB35E54BFD21855BF43E755BF03
:1054000015C656BFB4B057BF38A158BF0C9359BF8B
:1054100049805ABF5A645BBFA83A5CBFF4FD5CBFC9
:1054200050AA5DBF753C5EBF1CB15EBF4F065FBF3B
:10543000153A5FBF1F4B5FBF153A5FBFF7065FBFEF
:1054400014B35EBF64405EBF85B15DBFC0095DBF80
:10545000594C5CBF917E5BBF55A45ABF94C159BFE4
:10546000DBDC58BF1AFA57BFE71D57BF274E56BFA0
:105470007A8D55BFC6E154BF514E54BF13D553BFAB
:10548000FB7953BFB03D53BF292253BF672753BF9A
:10549000124E53BF319453BF77F853BFEA7854BFCD
:1054A000EC1255BFE8C155BF3C8356BF545257BF9D
:1054B000992A58BFCD0659BFA8E359BF9DBA5ABF14
:1054C00066885BBF6B485CBF6FF55CBF7A8D5DBF64
:1054D0004E0B5EBF446E5EBF14B35EBF6FD85EBF3F
:1054E000ADDD5EBFCEC25EBF7B885EBF01305EBFFA
:1054F0005ABB5DBF232D5DBFFD875CBF7DD05BBF09
:1055000042095BBF8B375ABFEE5F59BF598658BF00
:10551000B4B057BF43E256BF472056BFAD6E55BF2C
:105520000BD254BF594C54BF87E153BF8A9353BF2A
:10553000B26353BFF85353BFB26353BF8A9353BF91
:1055400087E153BF594C54BF0BD254BFAD6E55BF0A
:10555000472056BF43E256BFB4B057BF598658BF25
:10556000EE5F59BF8B375ABF42095BBF7DD05BBF2F
:10557000FD875CBF232D5DBF5ABB5DBF01305EBFA1
:105580007B885EBFCEC25EBFADDD5EBF6FD85EBF43
:1055900014B35EBF446E5EBF4E0B5EBF7A8D5DBFBF
:1055A0006FF55CBF6B485CBF66885BBF9DBA5ABF36
:1055B000A8E359BFCD0659BF992A58BF545257BFC7
:1055C0003C8356BFE8C155BFEC1255BFEA7854BFC3
:1055D00077F853BF319453BF124E53BF672753BF61
:1055E000292253BFB03D53BFFB7953BF13D553BFDF
:1055F000514E54BFC6E154BF7A8D55BF274E56BF9A
:10560000E71D57BF1AFA57BFDBDC58BF94C159BF1B
:1056100055A45ABF917E5BBF594C5CBFC0095DBFAA
:1056200085B15DBF64405EBF14B35EBFF7065FBF68
:10563000153A5FBF1F4B5FBF153A5FBF4F065FBF95
:105640001CB15EBF753C5EBF50AA5DBFF4FD5CBF80
:10565000A83A5CBF5A645BBF49805ABF0C9359BFDC
:1056600038A158BFB4B057BF15C656BF43E755BFA2
:10567000D21855BFB35E54BF7BBD53BFC13953BFB2
:10568000D4D452BFA39252BF7E7452BF637A52BF2A
:10569000A4A552BF49F452BF516653BF1EF953BF70
:1056A000C1A854BF9B7255BFBD5256BF424357BF9E
:1056B0003A4058BF674459BF95485ABFD4485BBF6A
:1056C000963E5CBF46255DBF55F65DBF7DAE5EBFB5
:1056D00028495FBF65C25FBFF01660BF784560BFF5
:1056E000064C60BF992A60BF33E15FBF22715FBF84
:1056F000B6DB5EBFDD245EBFDF4F5DBF52615CBFC6
:10570000255D5BBFE4495ABFCF2C59BF740C58BF0D
:105710000FEE56BF7FD955BF5BD354BF87E153BF50
:10572000910A53BF115352BFF5BE51BF2A5251BF08
:10573000F90F51BF09F950BFF90F51BF7A5351BF4B
:1057400033C451BF355E52BFDA2053BFE20654BFA7
:105750005F0C55BF6B2B56BF705F57BF90A058BFF3
:105760008EE959BFE4315BBF04735CBFB9A55DBF6F
:1057700076C35EBF05C55FBF27A560BFF65D61BF8D
:1057800085EB61BF3D4962BF7E7462BF516B62BFF2
:10579000B62D62BF56BC61BFD71761BF814360BFE2
:1057A00042435FBFB01B5EBF0BD25CBF2F6E5BBFBF
:1057B000A9F659BFB07258BF70EB56BF6E6955BF9E
:1057C00088F453BFEA9552BFCA5451BF043950BF41
:1057D000CF494FBF118D4EBF07084EBFA1BE4DBF71
:1057E00024B44DBFE2E94DBFD95F4EBF62154FBF34
:1057F000350750BF0E3251BFAC9052BF821C54BF10
:105800000CCD55BFBB9B57BF6B7D59BF49685BBF74
:105810007E525DBFE8305FBF09F960BF66A062BF1E
:10582000DA1B64BFE16265BF4C6C66BFE83067BFDE
:1058300026AA67BF6FD367BF7EA967BF5A2A67BF13
:10584000AC5666BFC22F65BF8CB963BF98FA61BF03
:1058500072F95FBF48BF5DBF97565BBF29CB58BF8A
:10586000C32A56BF278353BF19E250BFFB574EBF11
:10587000E0F34BBF8BC349BFB6D647BF7E3A46BFA6
:10588000FCFB44BFAF2544BF6AC143BF62D643BFE0
:10589000D76944BF677E45BFBA1447BFD82A49BFFE
:1058A000DCBA4BBFE8BC4EBF812652BF3AE955BFB8
:1058B000A9F659BF7E3A5EBF66A062BF1B1267BFE2
:1058C0000C766BBF03B26FBF71AC73BFD84777BFA5
:1058D000B2687ABFD0F27CBFFBCB7EBFAED87FBFB1
:1058E000000080BF022B7FBF63457DBF213C7ABF94
:1058F0002A0076BF0A8570BF94C169BFD9B161BF64
:105900003B5358BF00A94DBFB6B941BFDA8F34BF72
:105910002E3926BFB4C816BFBD5206BFB1E1E9BEDD
:10592000187DC5BE4AB59FBE039571BE0C0722BE49
:10593000789CA2BD00000000D39F7D3BD39FFD3B20
:10594000DF373E3CB6F37D3CC7D79E3CACCABE3C7D
:1059500089D2DE3C5704FF3C8FA50F3D6FD31F3D1E
:105960004816303D1A6E403D68D0503DAE47613D0F
:1059700071C9713DD82A813D3676893D10CC913D63
:10598000EA219A3DC477A23DDDD2AA3DF52DB33D73
:105990000D89BB3DE8DEC33DC234CC3D5E85D43DC0
:1059A000BBD0DC3DDB16E53D7E52ED3D228EF53D64
:1059B0000ABAFD3D5AF0023E1101073EEA090B3ECC
:1059C000C2120F3E5D16133EBA14173E16131B3E4D
:1059D000350C1F3E5305233ED2FB263E52F22A3E93
:1059E00032E62E3EB1DC323E91D0363EB0C93A3E70
:1059F000CEC23E3E8CBE423EE8BC463E83C04A3EDE
:105A0000BDC64E3E96CF523EADDD563E02F15A3EE9
:105A100096095F3EC824633E9A42673EAA656B3E84
:105A2000598B6F3E46B6733E33E1773EBF0E7C3EE8
:105A3000261E803E3B36823E014D843E1765863EE3
:105A4000DD7B883E53918A3E7AA58C3E52B88E3ECD
:105A5000DAC9903E12DA923E5CE6943E56F1963EEA
:105A600001FB983EBD009B3E29059D3E46089F3E9A
:105A7000C408A13EA306A33E3203A53E72FEA63E85
:105A800062F8A83E52F2AA3EF2EAAC3E93E3AE3E82
:105A900083DDB03E73D7B23E63D1B43EF2CDB63EA5
:105AA00082CAB83EB0C9BA3E7DCBBC3E9ACEBE3E9D
:105AB00056D4C03EB1DCC23E5CE6C43EF5F3C63E01
:105AC000DE02C93E6614CB3E3D27CD3EB43CCF3E00
:105AD0007A53D13EDF6CD33E4486D53EA99FD73E54
